:100000000C9430020C944D020C944D020C944D0251
:100010000C944D020C944D020C944D020C944D0224
:100020000C944D020C944D020C94C1320C949333F9
:100030000C94542D0C944D020C944D020C944D02D2
:100040000C944D020C944D020C944D020C944D02F4
:100050000C944D020C94F92D0C944D020C944D020D
:100060000C944D020C944D020C944D020C944D02D4
:100070000C944D020C944D020C944D020C944D02C4
:100080000C944D020C944D020C944D020C944D02B4
:100090000C944D020C944D020C944D020C944D02A4
:1000A0000C944D020C944D020C944D02C505C505EF
:1000B000F105F10599079907990799077F06E90660
:1000C000FB06FB066E16911698162E182E18D216E1
:1000D000E516F8164317481751175E176D17701776
:1000E0007E178C179D17CC17DD17FA171218D71C1F
:1000F000491DDF1CA91CAD1CE31CB01CE61CF11C37
:10010000BB1C3F1DBF1CF51CC31CF91C231DC71CB9
:10011000FD1C2D1DCD1C031D0D1DB41CEA1CB71CA0
:10012000ED1CD21C081D191D391D3B1DA51CDB1C17
:10013000521D272B2D2B1B2B212B332B392B3F2BE8
:10014000FB3322341A3522341A356E3491341A3581
:10015000E834F73404000500060007000800FD3706
:100160007A585A000004E6D6B4460200210116006F
:100170000000742FE5A3E000AA00875D003D888998
:10018000C65436C3174FE4EFB0874A634F35E238A1
:1001900095B85CFFB6DFAC5EAFFD91BE6544B614AA
:1001A00038D8630D7CF001077AE364019D81FD0A74
:1001B00079AEB4220507A0B0BD21FB248FA60BA603
:1001C00065A8EFB46F6F6C2B347C7B41DD015B5312
:1001D0004BC90841CE9293134B8C5C6EAB70577633
:1001E000AF3479740E93954595D5DC1876A999238B
:1001F0005F8123BE446370F652FA633EAF8B060400
:1002000051DB512400005C3B112A7EC9DE4900010C
:10021000A301AB0100001E6A15FAB1C467FB02001E
:1002200000000004595A010001003904131B451B4A
:100230000000020002003504131B451B00000300F0
:1002400001003A04131B451B0000040002001F04B8
:10025000131B451B0C1B050001003B04131B451B16
:100260000000060002002104131B451B00000700CC
:1002700002003704131B451B0000080001003C046A
:10028000131B451B0000120002003D04131B451BFD
:100290000000130002003F04131B451B0000140064
:1002A00001004104131B451B000015000000000065
:1002B000111A8E1A000000000000000000002A2B16
:1002C0002800000000000000000000000000000006
:1002D0000029000000002C1E34202122243426276F
:1002E000252E362D3738271E1F2021222324252690
:1002F0003333362E37381F0405060708090A0B0C5E
:100300000D0E0F101112131415161718191A1B1CA5
:100310001D2F3130232D350405060708090A0B0C63
:100320000D0E0F101112131415161718191A1B1C85
:100330001D2F3130354C000000000000000000008F
:1003400000000000000000000000000000000000AD
:10035000000000000000000000007E0F00D4FFFF3E
:10036000FFC7000000781C037600690061006C0084
:100370003A00660036003400630032006200330049
:1003800063000000140363006F006F006C007000D6
:10039000610064003100330000000A036D002E008C
:1003A0006B00690000000403090409024200020115
:1003B00000A0FA0904000001030101000921110154
:1003C0000001224000070581030800010904010023
:1003D000020300000009211101000122220007058B
:1003E000820320000107050303200001120100021F
:1003F00000000008434D13100001010203010660D4
:10040000FF0961A1010962150026FF00952075080A
:1004100081020963150026FF00952075089102C02E
:1004200005010906A101050719E029E715002501C5
:10043000950875018102950175088101050719006C
:1004400029FF150026FF009506750881000508198B
:10045000012905950575019102950175039101C06A
:1004600011241FBECFEFDAE0DEBFCDBF11E0A0E068
:10047000B1E0ECE3FCE602C005900D92A232B107B8
:10048000D9F724E0A2E2B1E001C01D92A435B20781
:10049000E1F70E94B5130C941C360C94000081E027
:1004A000089581110DC061110BC0453048F4E42F4F
:1004B000F0E0EE0FFF1FEC5AFE4F859194910895E6
:1004C00081E090E008959C013A9521153F4130F577
:1004D000BC0166277270AC01442754709C0122272E
:1004E000387094FF0FC090FF02C080E101C080E02F
:1004F000672B09F08062452B09F08064232B79F08B
:1005000080680895892F8170672B09F08260452BE0
:1005100009F08460232B19F08860089580E0089525
:10052000CF93DF93EB010E946302FE010995DF91F7
:10053000CF910895CF93DF93EC01805E91090897E6
:1005400010F0209719F469E275E002C067E375E0E6
:10055000CE010E9490028C2F0E94B404DF91CF91B3
:100560000895CF93DF93EC010E94E604CE01805EF4
:100570009109089710F0209719F460E375E002C024
:100580006EE375E0CE010E949002DF91CF91089555
:1005900081E0089581E008950E94CA0208950E94B2
:1005A000CC0208950E94CA02089508950E94D502BF
:1005B0000895A6E0B0E0EFEDF2E00C9464354983D5
:1005C0005A839E833091290189819A81311115C006
:1005D0003E81332359F0222349F00E941609182F37
:1005E000682F89819A810E94FD0803C00E940A0930
:1005F000182F69817A81812F04C00E9416096981B0
:100600007A810E9479112696E3E00C948035FC01F2
:1006100087819085009749F4262F4081518162811E
:100620007381848195810E94D90208950F931F934D
:10063000CF93DF93EC0161E00E9407038C01BE01C0
:100640000E94CF02882329F0BE01C8010E947E22A9
:1006500002C080E090E08170DF91CF911F910F91F7
:100660000895CF93DF93EC0160E00E940703BE0181
:100670000E94D602DF91CF91089508950E945305FC
:100680000E943D032FEF84E39CE021508040904086
:10069000E1F700C0000008950E943E030E941F2E53
:1006A00008950E943E030E94302E08950F931F93D9
:1006B000CF93DF93EC018B010E94912B882329F0CB
:1006C00061E0C8010E940703EC01B801CE010E945D
:1006D0002D14882309F46CC0B801CE010E94BD1905
:1006E000882309F465C0B801CE010E94D202882394
:1006F00009F45EC0B801CE010E94D628882309F40F
:1007000057C0B801CE010E94B92B882309F450C00C
:10071000B801CE010E94951F882309F449C0B80191
:10072000CE010E940F2B882309F442C0B801CE01EC
:100730000E94811C8823E1F1B801CE010E94642748
:100740008823B1F1B801CE010E94522C882381F197
:10075000F8018581882341F1C3308CE7D807D1F0B7
:1007600040F4C115FCE7DF0791F0C130DC47A1F090
:100770001BC0CB35ECE7DE07A9F0CC35FCE7DF0783
:1007800071F0CA35DC4781F40E94F90E0DC00E9459
:100790004C030EC00E94010F0E94510309C00E9429
:1007A000EF0E02C00E94FD0EC8010E94C80201C0E7
:1007B00080E0DF91CF911F910F910895CF93DF9348
:1007C000EC0161E00E940703BE010E945603DF9125
:1007D000CF9108950E94322D0E94250408950E9411
:1007E00029040E943B2D0895982F92959F7019F02F
:1007F000892F24E001C020E0982F9695969511F05E
:100800002E5F892F982F969509F02F5F822F0895DC
:10081000089581E008950895CF93DF93D82F0E9423
:100820000904C82F882319F08D2F0E940B048C2FE8
:10083000DF91CF9108950895CF93C82F0E940804A7
:100840008C2F0E940C04CF91089580E00E941C041C
:1008500008950E94A72C0E941C040895CF930E9423
:10086000A72CC82F80912401C81779F0C0932401C8
:100870000E94C22D60932501709326018093270169
:10088000909328018C2F0E941C04CF91089500970B
:1008900041F0EFE9FFE03197F1F700C00000019768
:1008A000F6CF0895AFE0B0E0E8E5F4E00C946335EE
:1008B0004A875B876C877D878E879F87882349F06F
:1008C00080912A0190912B01019690932B018093A6
:1008D0002A018F8581110E94AB0D8E010F5F1F4F82
:1008E00089E0F80111928A95E9F786E0FE013A96CF
:1008F000D80101900D928A95E1F78091CA0382FF99
:1009000012C08091210490912204892B61F00E94F1
:10091000670D882319F082E00E94C30E0E94430DE8
:1009200081110E940B0E8D8181110CC009811A81E9
:100930002B813C814D815E816F81788589850E9404
:10094000B30C05C0C8010E9416038111EFCF2F968A
:10095000E4E00C947F35FC012481213021F4808176
:1009600091810E9443090895CF93882369F1C82F8C
:100970008CEF8C0F813AD0F46C2F80910001909114
:1009800001010E94CB2C882349F06C2F809100013B
:10099000909101010E94042D0E94190E6C2F8091EC
:1009A0000001909101010E94012D0CC080E28C0F8A
:1009B000883050F4C77081E001C0880FCA95EAF70B
:1009C0000E948B0D0E94190ECF9108958823D1F0BB
:1009D000682F8CEF860F813A38F480910001909156
:1009E00001010E94042D0CC080E2860F883050F473
:1009F000677081E001C0880F6A95EAF70E94910D47
:100A00000E94190E08951F93CF93DF93182FEB01C7
:100A10000E94B404209741F08FE99FE00197F1F71D
:100A200000C000002197F6CF812F0E94E604DF91DD
:100A3000CF911F910895893329F460913F047091FB
:100A4000400404C060913D0470913E040E9403057F
:100A50000895882321F00E948B0D0E94190E08959D
:100A6000882321F00E94910D0E94190E0895882379
:100A700021F00E949E0D0E94190E0895882321F0F6
:100A80000E94A40D0E94190E08950E94AB0D0E94B1
:100A9000190E089580910001909101010E94072D87
:100AA0000E94450508950E94980D0E944A050895E8
:100AB00092959F70963079F010F4925001C09A5040
:100AC000923068F4803F69F018F4883E40F409C021
:100AD000843F29F406C0883E20F0813F11F080E079
:100AE000089581E00895FC012481222371F087811B
:100AF0009085009719F00E94811004C08081918137
:100B00000E9443090E945805089580E00895A0E0DE
:100B1000B0E0EDE8F5E00C945E357C01EB01FC0102
:100B2000D580068102950F700E94810D8823E9F01F
:100B3000DD20D9F08D2F807F803451F080E28C0F42
:100B4000883098F0011104C08D2F807E803269F0CA
:100B50008091CA0382FF09C082E00E94C30E0E94F6
:100B6000810D91E0C82EC92601C0C12CBD2EB294C2
:100B70008FE0B8228B2D90E08C30910508F0D9C120
:100B8000FC01EA5AFF4F0C9448351D2F1F708D2F22
:100B9000807F11F01295107FDD2099F0112309F468
:100BA000A6C180E28C0F883010F0C11104C0812FE3
:100BB0000E948B0D03C0812F0E949E0D0E94190E72
:100BC00096C18C2F0E94E604112309F4B2C180E281
:100BD0008C0F883048F1CC2339F1812F0E94A40D6D
:100BE00026C01D2F1F708D2F807F803211F012952F
:100BF000107FCC2321F0C13009F451C05CC080913A
:100C0000CA0382FD17C0DD2049F0112329F0812F8E
:100C10000E948B0D0E94190E80E06AC180E00E9444
:100C2000E604112309F485C1812F0E94910D0E94D1
:100C3000190E7FC1DD20D1F0002309F456C0013028
:100C400021F4812F0E94C40D74C180913B04823035
:100C500008F46FC108136DC1812F0E942905812FEF
:100C60000E94DB0D812F0E94800E63C1002369F07A
:100C700080913B04823008F45CC1013009F059C115
:100C80000E94880D812309F454C1812F0E943005F0
:100C9000812F0E94DB0D812F0E948C0E4AC1809112
:100CA0004104DD2021F0801708F443C11EC008175D
:100CB00008F03FC120C0DD20E1F00023B1F020E0CA
:100CC000F7014081518162817381848195810E9405
:100CD000D902B7010E94391C882309F408C1F70121
:100CE000868180FF04C18F708683812F0E94290531
:100CF00020C1011107C1812F0E9430051AC18D2F1B
:100D0000837081F5D11019C14C2F429546954770DB
:100D1000440F440F2C2F2F70042E01C0220F0A9471
:100D2000EAF7C4FF08C08FE090E001C0880F4A9541
:100D3000EAF7809501C080E09D2F96959695937077
:100D4000822B923049F058F4913019F00E944F08EC
:100D5000F4C00E944908F1C00E945508EEC00E94EC
:100D60004608EBC0DD2019F08D2F817001C08695FB
:100D7000882309F4E2C04C2F429546954770440FF2
:100D8000440F2C2F2F70042E01C0220F0A94EAF773
:100D9000C4FF08C08FE090E001C0880F4A95EAF7D1
:100DA000809501C080E09D2F969596959370822B3B
:100DB000923049F058F4913019F00E949B08BDC060
:100DC0000E949508BAC00E94A108B7C00E945E08A0
:100DD000B4C01D2F1F70DD2039F0812F0E947008D4
:100DE0008C2F0E942905A9C08C2F0E943005812FCD
:100DF0000E947C08A2C0C23FD9F028F4C03F41F055
:100E0000C13F51F170C0C33FC9F0C43F09F16BC08D
:100E100080914104DD2021F0081708F08AC003C04A
:100E2000801708F486C08D2F8F710E94890881C0B9
:100E30008D2F8F71DD2009F460C077C0DD2029F08F
:100E40008D2F8F710E94670874C00E94630871C063
:100E50008091CA0382FD06C08D2F8F71DD2009F4B9
:100E600064C04BC080913B04823040F1DD20C1F072
:100E70000E94630D843039F40E94B90E8D2F8F715A
:100E80000E947C0855C080913B04081708F050C0B0
:100E90001D2F1F71812F0E94700863E0812F07C0F2
:100EA000081740F00E94B90E64E08D2F8F710E94E8
:100EB0009B0E3EC081E00E94C30E3AC0DD2051F07F
:100EC0001D2F1F71812F0E94700863E0812F0E94E7
:100ED0009B0E2FC081E00E94C30E023050F182E0D1
:100EE0000E94C30E26C0DD2059F0002321F08C2F74
:100EF0000E94B4041EC08D2F8F710E94700819C00B
:100F0000002389F0C93329F480913F049091400473
:100F100004C080913D0490913E040E9447048C2FB0
:100F20000E94E60406C08D2F8F710E947C0801C0CC
:100F3000C12C88EF8B0D843020F40E94A72C0E94D6
:100F40001C04CE010E945805811105C010922B018E
:100F500010922A0120C0DD2019F00111F7CF1BC02B
:100F60000111F4CF20E0F70140815181628173814A
:100F7000848195810E94D902B7010E94401C882378
:100F800029F380912A0190912B010297F9F68C2F79
:100F90000E941B05DBCFCC2089F00E94630D80FDF1
:100FA0000DC0F70115820E945D0D0E947008C701F7
:100FB0000E9402080E945D0D0E947C08CDB7DEB73A
:100FC000E9E00C947A350F931F93CF93DF93EC01F4
:100FD0008F819885009719F00E94811005C0688163
:100FE00079818D810E944E098C010E94A7080E9480
:100FF0003908B801CE010E948705DF91CF911F917A
:101000000F910895CF93DF93FC0124812223D1F027
:10101000EC010E94DE0381110FC00E94810D882324
:1010200089F08D81882371F08091CA0382FF0AC004
:1010300082E00E94C30E06C0CE010E94E307CE01EB
:101040000E943103DF91CF910895A6E0B0E0EBE27A
:10105000F8E00C9465352696E2E00C948135A9E021
:10106000B0E0E5E3F8E00C9463352996E4E00C94F5
:101070007F35089508950E943A0808950E943B081C
:1010800008950E943E088093300108950E9441080F
:10109000089590913001892B0E9441080895909104
:1010A000300189230E9441080895909130018927D9
:1010B0000E94410808950E943A0808950E945B0822
:1010C00080932F01089580E00E945E08089591E0CA
:1010D00001C0990F8A95EAF7892F0E945E0808954A
:1010E00021E030E001C0220F8A95EAF780912F01BC
:1010F000822B0E945E08089521E030E001C0220F9B
:101100008A95EAF7209580912F0182230E945E083C
:10111000089521E030E001C0220F8A95EAF780911E
:101120002F0182270E945E08089590912F01892B3C
:101130000E945E08089590912F0189230E945E0805
:10114000089590912F0189270E945E0808950895BF
:10115000962F9770A1E001C0AA0F9A95EAF793E045
:10116000769567959A95E1F7FB01EE0FFF1F6E0FDD
:101170007F1FFA01E60FF71F40E050E0682F70E094
:1011800090819B01042E02C0369527950A94E2F7C0
:101190002170219529272A23292721934F5F5F4F0B
:1011A0004330510569F708959B01782F777043E02C
:1011B000969587954A95E1F7FC01EE0FFF1F8E0F7C
:1011C0009F1FF901E80FF91F40E050E080E02191F6
:1011D00030E0072E02C0369527950A94E2F7217079
:1011E0003327042E01C0220F0A94EAF7822B4F5FA7
:1011F0005F4F4330510559F70895282F911109C0C9
:10120000853038F4862F622F70E04CE251E00E9466
:10121000A8080895911108C0853030F46CE271E09F
:1012200090E00E94D408089580E00895CF92DF9264
:10123000FF920F931F93CF93DF936C0100912F01C7
:1012400080913001082BC3E0D0E010E0C8010C2EE3
:1012500002C0959587950A94E2F780FD04C0219716
:10126000A8F7F12C07C0FC2EB6018C2F0E94941118
:101270000197A9F38F2DDF91CF911F910F91FF90CF
:10128000DF90CF900895CF93DF93EC010E94160971
:10129000BE010E949411DF91CF9108951F93CF93C7
:1012A000DF93EB0190912901992321F0CB010E945A
:1012B000430913C0882349F0CB010E941609182F57
:1012C000682FCE010E94FD0804C0CB010E940A09CC
:1012D000182FBE01812F0E949411DF91CF911F9191
:1012E0000895E1E0F0E0DF0102C0AA0FBB1F6A959C
:1012F000E2F7BD01DF0102C0AA0FBB1F4A95E2F76A
:10130000AD01462B01C0EE0F2A95EAF7942F9823E2
:10131000491302C08E2B0895E0958E230895242F43
:10132000462F682F80912F010E9471090E945E084C
:101330000895FF920F931F93CF93DF93C0913101D4
:1013400089E0F82E80913201C817B1F0D0E0FC9E00
:10135000F001FD9EF00D1124ED5CFE4F0081118126
:1013600022813381448155816681778180850E9405
:101370002F082196C770E6CFCDB7DEB7E5E00C9415
:101380007E350F931F9300917B0110917C0120917A
:101390007D0130917E0140917F01509180016091EB
:1013A000810170918201809183010E942F081F9119
:1013B0000F910895209131019091320159E0291740
:1013C000A9F030E0529FF001539FF00D1124ED5C25
:1013D000FE4F7181761306C07081781303C075814A
:1013E000741306C02F5F3F4F2770E9CF80E0089548
:1013F00081E00895A0E0B0E0E0E0FAE00C94603510
:101400008091810182958F7009F052C08091800196
:10141000882309F44DC0C091310189E0D82E809114
:101420003201C81709F444C0D0E0DC9E8001DD9E83
:10143000100D1124F801ED5CFE4F84818823A9F181
:10144000918180917C01981330C0908180917B01C3
:1014500098132BC08581811128C0E280F380809190
:101460007D0190917E01E81AF90A60E08BE791E036
:101470000E9407036BE771E00E949D19E816F906C8
:10148000A0F4809181018F70806180938101F801C7
:10149000E75CFE4F80818F70806180838BE791E0F5
:1014A0000E9402080E94990903C02196C770B7CF15
:1014B000CDB7DEB7E7E00C947C352F923F925F9278
:1014C0006F927F928F929F92AF92BF92CF92DF9254
:1014D000EF92FF920F931F93CF93DF93CDB7DEB7B9
:1014E00068970FB6F894DEBF0FBECDBF8C0186E0C3
:1014F000F801DE01539601900D928A95E1F7D8012B
:1015000014967C9014971596EC908BE7282E81E02A
:10151000382E80917F0181111CC0772009F456C0BC
:10152000EE2009F450C0C8010E947305F82E8823EC
:1015300009F449C089E0F801ABE7B1E001900D92F0
:101540008A95E1F78BE791E00E94AB040E94FA09CB
:101550009DC1F80150806180C280D38060E08BE73C
:1015600091E00E9407035C01F090800180917D0171
:1015700090917E01FF2009F405C14601881A990A5D
:1015800060E08BE791E00E9407036BE771E00E9447
:101590009D198816990608F094C07720B9F08091BB
:1015A0008101382F307F20917C01D80111969C91C8
:1015B0001197332371F0291709F440C0C8010E9424
:1015C000730581114FC0C8010E940208FF24F394E3
:1015D000B1C1291321C020917B019C9129131CC00A
:1015E000409182015091830117962D913C9118975B
:1015F0004217530789F4E1100FC08F708061809308
:1016000081010E94C1098BE791E00E94020880914C
:101610008101F80186835FC1E1103BC140E0662D86
:10162000852D0E94DA09882309F44DC16BE771E02A
:10163000C5010E94351C811138C145C120917B0133
:10164000F80190812913BACF409182015091830112
:10165000278130854217530709F0B0CFE110AECF94
:101660008683E2C0EE2009F4AECF20918101822F63
:1016700082958F7090E00297BCF080917B019091F1
:101680007C019B878A87DD86CC8680917F018E874F
:101690001F86288B80918201909183019A8B898B80
:1016A000CE010A960E94020889E0F801ABE7B1E09A
:1016B00001900D928A95E1F70E94FA090E94C109F2
:1016C00085CF80918101982F907F89F46C2DDE8ADF
:1016D000CD8A452D562D7E89872D9E2D0E94250869
:1016E0008BE791E00E94020889E0D101E6C07720F3
:1016F00009F46CCF20917C01F801918129131AC063
:1017000020917B019081291315C040918201509155
:101710008301278130854217530761F4E1100AC025
:101720008683C8010E94020889E0D1011D928A9532
:10173000E9F700C1C8010E947305882309F443CF6B
:10174000EE2009F440CF20918101822F82958F7085
:1017500090E002970CF4A8CF80917B0190917C01DE
:101760009A838983DC82CB8280917F018D831E8264
:101770002F83809182019091830199878887CE0180
:10178000019690CF5601A81AB90A60E08BE791E064
:101790000E9407036BE771E00E949D19A816B90625
:1017A00008F065C0772009F411CFFE2CEE2009F473
:1017B0000ACF90917C01F801818198134AC09091E1
:1017C0007B018081981345C0209182013091830173
:1017D0008781908528173907E1F580917D019091E7
:1017E0007E01C81AD90AF8ECCF16D10448F58091C9
:1017F000810180FD25C082958F70482F50E04115F2
:101800005105F1F020918101D80116962C9316977D
:101810004F30510549F08F5F982F9295907F822F1E
:101820008F70892B16968C93C8010E94020889E05C
:10183000F801ABE7B1E001900D928A95E1F726C07F
:1018400089E0F801ABE7B1E001900D928A95E1F7EC
:1018500071C0C8010E947305811126CF809181015A
:10186000816080938101C8010E94020863C06C2DD1
:10187000DE8ACD8A452D562D7E89872D9E2D0E948C
:10188000250889E0F10111928A95E9F70E94C109C2
:1018900051C0809181018160809381016BE771E08B
:1018A000C5010E94391C8823B1F08BE791E00E94AA
:1018B0000208EBE7F1E089E0DF011D928A95E9F784
:1018C0000E94C10908C040E0662D852D0E94DA09FA
:1018D000E82E882311F0F12C2DC05B8A6C8A8B894D
:1018E0009C890E944309292F22952F70243020F4CF
:1018F0009F70223028F009C02A50223088F015C08D
:10190000992351F0811108C014C0992329F0D801FE
:1019100016969C91907F69F0805E883030F409C003
:10192000803F38F0815F833020F0C8010E940208B8
:10193000EF2CFE2C8F2D68960FB6F894DEBF0FBEED
:10194000CDBFDF91CF911F910F91FF90EF90DF906E
:10195000CF90BF90AF909F908F907F906F905F904F
:101960003F902F900895A2E1B0E0E9EBFCE00C94E9
:1019700062350A871B872C873D874E875F87688B78
:10198000798B8A8BCE010A960E945D0A882371F0BA
:101990004E854423C1F10A851B852C853D855F85D5
:1019A000688979898A890E942F082DC089E0FE0103
:1019B0003A96DE01119601900D928A95E1F76E85B7
:1019C000662309F12091320130E0C9010196877048
:1019D00099274091310150E08417950709F43FC0E1
:1019E0006D8399E0929FD001939FB00D1124AD5C5F
:1019F000BE4FFE01319601900D929A95E1F78093CA
:101A000032010E94990989E0F82E8091310190916C
:101A10003201891789F1F89EC00111248D5C9E4F17
:101A20000E945D0A882341F1E0913101FE9EF001A0
:101A30001124ED5CFE4F00811181228133814481AC
:101A400055816681778180850E942F0880913101C0
:101A500090E001968770992780933101D6CF0E943C
:101A600053051092320110923101EBE7F1E089E069
:101A7000DF011D928A95E9F76296E5E00C947E35C8
:101A80008091910108958091210490912204892BE5
:101A900089F00E94B62D20918F0130919001AC0108
:101AA000421B530B81E02091210430912204421704
:101AB000530708F480E08170089580918E01869527
:101AC00086958695089580918E01877008950E946D
:101AD000B62D20918C0130918D01821B930B2091AA
:101AE0002104309122048217930740F080918E01E7
:101AF00082FB882780F991E0892701C080E081700E
:101B0000089590918E01977081E009F480E0089526
:101B100080919E01089590919E01892B80939E0152
:101B20000895809590919E01892380939E01089548
:101B300010929E01089580919D01089590919D01BC
:101B4000892B80939D010895809590919D01892313
:101B500080939D01089510929D01089580939C01AA
:101B6000089510929C01089580939B01089510920E
:101B70009B01089580919201089508950E94BD0DE2
:101B800008950E94BE0D0895CF93909192019823DD
:101B9000891779F0C82F0E94B62D909390018093F9
:101BA0008F01809192018C2B809392018C2F0E9447
:101BB000C10DCF91089590919201292F282399F07A
:101BC0008095892380939201882319F00E94B62D75
:101BD00002C080E090E09093900180938F0180910B
:101BE00092010E94C10D0895CF939091CA0392FF74
:101BF00010C090919201981761F0C82F0E94B62DE5
:101C00009093900180938F01C09392018C2F0E943A
:101C1000C10DCF91089580919201882349F01092CF
:101C200092011092900110928F0180E00E94C10DEC
:101C30000895CF93DF93E0910001F091010180912D
:101C40009E018083E0910001F091010190818091DB
:101C50009D01892B8083809192018823E9F08091F6
:101C6000210490912204892B29F00E94430D8111B7
:101C70000E940B0EE0910001F09101019081809192
:101C80009201892B808380910001909101010E9433
:101C9000BF2C81110E940B0EE0910001F091010117
:101CA00080919B018095908189238083E091000140
:101CB000F0910101908180919C01892B8083C091DA
:101CC0000001D091010148E050E064E871E0CE01EC
:101CD0000E949535892B59F088E0FE01A4E8B1E017
:101CE00001900D928A95E1F7CE010E94B42CDF910C
:101CF000CF9108950E94BD0D08950E947A0E089517
:101D000090919101292F2823821729F0892B809304
:101D100091010E947D0E089590919101292F282311
:101D200031F080958923809391010E947D0E089562
:101D30000E94BD0D08959091CA0392FF17C098E0CC
:101D4000899F90011124262B20938E010E947008F8
:101D50000E94B62D90938D0180938C0180918E010D
:101D60008695869586950E94980E08950E94700823
:101D7000089510928E0110928D0110928C0180E0D6
:101D80000E94980E089590918E01809589238093EA
:101D90008E01282F277069F4981759F09091CA0383
:101DA00092FF07C08695869586950E947C080E94C2
:101DB000B90E08959091CA0392FB222720F92817A3
:101DC00069F080FB92F99093CA038091C9039091C6
:101DD000CA030E94230F82E00E94C30E08958091DF
:101DE000CA0382FB882780F991E089270E94DA0ED6
:101DF000089581E00E94DA0E089580E00E94DA0ED4
:101E000008956FEF7FEF80E090E00E94FE35089527
:101E100080E090E00E94CA35863E9E4F19F40E94F1
:101E2000C213089580E0089582E090E00E94C235D8
:101E3000089583E090E00E94C235089584E090E028
:101E40000E94CA350895BC0184E090E00E94FE35EE
:101E50000895AB01BC018FE090E00E94F235089537
:101E6000AB01BC0183E190E00E94F235089560E08F
:101E700070E0CB010E94300F089560E070E0CB016C
:101E80000E94290F0E94370F0895A8E0B0E0EBE40C
:101E9000FFE00C94653566EE7EEF80E090E00E94F6
:101EA000FE3560E082E090E00E94E03560E083E093
:101EB00090E00E94E0351092300160E074E184E02F
:101EC00090E00E94FE3560E086E090E00E94E03500
:101ED0006FEF87E090E00E94E03540E050E0BA010B
:101EE00088E090E00E94F23560E084E290E00E9499
:101EF000E03560E087E190E00E94E03560E08CE052
:101F000090E00E94E03560E08DE090E00E94E035D6
:101F100019821A821B821C821D821E821F821886D1
:101F200048E050E068E170E0CE0101960E94D035B3
:101F300040E050E0BA0180E290E00E94F23580E09B
:101F40000E94DB130E9410140E943D0F2896E2E0CD
:101F50000C9481350E94450F0895682F8EE090E023
:101F60000E94E0350895A6E0B0E0E9EBFFE00C94B4
:101F700063350E94B62D8C0180919F019091A00144
:101F80000817190781F019821A820E94B62D682F4E
:101F900049815A81792F80E090E00E945204109389
:101FA000A00100939F012696E4E00C947F350E94E7
:101FB000C22D6093A6017093A7018093A80190930E
:101FC000A9016093A2017093A3018093A40190934F
:101FD000A501089581E0089581E008950E94EC0F25
:101FE000089508950E94F10F08950E94F10F089539
:101FF0000E94F50F08950E94F10F08950E94FB0FB3
:1020000008950E94F10F089588E792E10E949D2CA7
:102010000E9445160E94601B0E9401100E94FE0F44
:1020200008950E94F20F0E94F10F08950E949712E6
:102030000E941B0408950E94AD2D0E9420140E944E
:102040003C130E9416100E94F80F08950E949A28CF
:102050000E941A2C0E9437220E945A1F0895A6E05F
:10206000B0E0E5E3F0E10C945F350E94EA0F8111E6
:1020700003C00E94B30F3DC00E9448131091A101FC
:1020800080E00E94C7121817A1F38091AA0181FD78
:102090000E94CD120E94EE0FD82E80E00E94C7123F
:1020A000E82EF090A101F82611F110E001E0CC2417
:1020B000C3948F2D8023A9F0DD2099F019831A8213
:1020C0000E94B62D9C838B83CD8291E08E2D802340
:1020D00009F490E049815A816B817C818D810E9455
:1020E00052041F5F000F153021F7E092A1010E94FA
:1020F000D70F0E9426100E942E042696E8E00C942A
:102100007B351F93CF93DF930E949911EC01C1158A
:1021100082E5D807C8F5C11590E5D90708F0BBC01E
:10212000C83ED105C0F4C03ED10508F0DDC0C53AB7
:10213000D10550F4C430D10508F0D6C0219709F07C
:10214000D0C081E090E0D1C0CD3CD10508F4C9C039
:10215000CE019065CAC0C11580E4D80708F05AC006
:10216000C11590E2D90708F0AFC0C11581E0D807CA
:1021700008F4B7C08D2F0E943512182FCE01992771
:102180000E9499111F71ABC0C03892E5D90720F5A4
:10219000C03682E5D80708F061C0C03492E5D9079F
:1021A00008F04AC0C03282E5D807F0F54C2F4695BA
:1021B000469590E2499FA0011124C37021E030E0D0
:1021C000C90102C0880F991FCA95E2F7EA01C82B1E
:1021D000D92BCE019D6889C0C03C92E5D90768F42F
:1021E0008C2F8F71C03AD24508F04CC090E0D82FA8
:1021F000CC27CE01846F906A78C0C03E82E5D807B4
:1022000008F06FC0CF71DD27DC2FCC27CE01806FA7
:10221000906A6BC0CE0199270E949911CC27DF707C
:10222000D06A8C2B9D2B61C0CF71D0E0DC2FCC27E6
:10223000CE01816F906A59C08C2F8F7186958695DB
:1022400090E2899F90011124C37081E090E002C068
:10225000880F991FCA95E2F79C6811C08C2F8F7167
:102260008695869590E2899F90011124C37081E044
:1022700090E002C0880F991FCA95E2F79A68822BF6
:10228000932B33C00E9435128F7190E0D82FCC274A
:10229000CE0190622AC08C2F8F710E94351295E07A
:1022A000D695C7959A95E1F7CF70D0E0DC2FCC2773
:1022B000282F30E084FF05C084E0220F331F8A9569
:1022C000E1F7D069CE01DBCF8D2F8F710E943512DF
:1022D000182FCE0199270E9499111F719062912B9E
:1022E00004C080E090E001C0CE01DF91CF911F914A
:1022F00008952091F7023091F802232B91F4703F5A
:1023000039F4603F71F480911D0490911E0408958A
:10231000711107C0653028F4462F60E00E943C260A
:10232000089580E090E008950E9479110E94811044
:1023300008958238910569F1B0F48133910509F46B
:1023400075C048F48932910509F467C08A32910555
:1023500009F471C008958533910509F459C0893392
:102360009105B9F00895833E910589F138F4803ED6
:102370009105D1F0823E910529F10895863E91059F
:10238000C9F1873E9105D9F1843E910509F06CC0F1
:1023900027C02091C90320FD57C021FD55C02091C1
:1023A000CA0323FD5BC008958091C90380FD48C026
:1023B0008091CA0380FF48C08091C90384FD46C054
:1023C00083EE51C08091C90382FF3CC0F5CF80915C
:1023D000C90382FD37C08091CA0380FD35C0ECCFB0
:1023E0008091CA0381FF36C08091C90384FD2EC04D
:1023F00087EE39C08091C90383FF2AC0F5CF809151
:10240000C90383FD25C08091CA0381FD23C0ECCFA1
:102410008091C90385FD22C01FC08091C90385FD3D
:102420001BC08091CA0383FF19C00AC08091C903F1
:1024300086FD16C017C08091C90386FD13C010C069
:1024400089E311C082EE0FC080EE0DC080E00BC0AA
:1024500086EE09C084EE07C085E305C089E203C0AB
:102460008AE201C081E390E008959091C90392FF50
:102470000DC0282F2871283019F4877F846006C08A
:10248000282F2471243011F48B7F886093FF0DC0B6
:10249000282F2871283119F4877E846106C0282FDF
:1024A0002471243111F48B7E88612091CA0320FFAE
:1024B0000DC0382F3871383019F4877F816006C01D
:1024C000382F3171313011F48E7F886021FF0DC0BB
:1024D000282F2871283119F4877E816106C0282FA2
:1024E0002171213111F48E7E886194FD877E0895DB
:1024F00080E008950E94010F08950E9448132FEF75
:1025000086E791E0215080409040E1F700C0000054
:102510000E94481380E00E94C71280FF04C00E94FE
:102520007A120E941F2E08950E947D1208950E9423
:10253000080F811102C00E94AA0F0E94140F8093FD
:10254000AA010E941E0F9093CA038093C9030E94A0
:1025500094120E94190F0E94460880912F010E9438
:102560005B080895E82FF0E0E453FC4F2081822FB0
:1025700090E021E030E002C0220F331F6A95E2F7BD
:102580002823392381E0232B09F480E00895E82FE4
:10259000F0E0E453FC4F80810895089508950E946F
:1025A000CE1208950E94CF1208950E94CE1208956F
:1025B0000E94D5120895CF93DF93ADE1B1E062E2BE
:1025C00071E041E050E08D918F3F31F46A177B0755
:1025D000D1F7DF91CF910895E82FE295EF70F0E009
:1025E00021A18F70EA0102C0CC0FDD1F8A95E2F7AE
:1025F000CE019C2F9095922391A392A1892B82A327
:10260000E5CF0F931F93CF93DF93EC01062F10E0DC
:1026100085E0689FB001112440E050E0B1E0A0E007
:10262000CA01860F971F835E9E4FFC0190819F3FDA
:1026300089F0292F22952F7030E0F90120A130E098
:102640009F7002C0359527959A95E2F720FD02C04C
:102650008B2F02C080E090E0A82BBB0F4F5F5F4F35
:1026600045305105E9F6F801EC0FFD1FA083DF911D
:10267000CF911F910F9108950E94DB121092CC030D
:102680001092CB0381E00E946D130E94D81208952E
:10269000A1E0B0E0EEE4F3E10C946435198260E06F
:1026A000CE0101960E9401139091CB03898121E014
:1026B000981301C020E098138093CB0341E06CECA9
:1026C00073E08BEC93E00E946E13182F0E94D212DD
:1026D000812F2196E3E00C9480350895EF92FF92CC
:1026E0000F931F93CF93DF937C018B01C42F222381
:1026F00049F081E08093AD010E94B62D9093AC012A
:102700008093AB018091AD01811102C080E01AC0BD
:102710008091AB019091AC010E94CE2D0597B0F352
:10272000D0E0AE01B701C8010E949535892B39F080
:10273000AE01B701C8010E94A23581E001C080E06E
:102740001092AD01CDB7DEB7E6E00C947D350E9466
:102750009C2F0E941B100E94A92F08950E94AE2F4B
:102760000E942F100E94C82F08950E944D2D0E9494
:10277000822F0E9404100E94A7130E94AE130E9491
:102780001110FBCF85E290E00E94C235883581F4BC
:1027900086E290E00E94C2358D3C51F487E290E0E1
:1027A0000E94C23591E0883309F090E0892F01C082
:1027B00080E081700895CF93C82F811102C06FEF20
:1027C00001C068E585E290E00E94E035C11102C0D9
:1027D0006FEF01C06DEC86E290E00E94E035C11120
:1027E00002C06FEF01C068E387E290E00E94E0352D
:1027F000CF910895089588E290E00E94C235682F35
:1028000070E080E090E008950895CF93C62F0E9475
:1028100004146C2F88E290E00E94E035CF91089577
:1028200080E00E94DB1360E070E0CB010E940514A1
:102830000E9421250E94912681E00E94DB130895C9
:102840000E94FA130E94FB130E9404140E94C213F8
:10285000811102C00E94101408959C01FB01858122
:10286000882351F0A90157574038510530F4C90168
:102870000E94A12680E0089581E008952FEFFC01D9
:10288000208308951F93CF93DF93EC01162F20919F
:10289000F7023091F8028881232B61F08E3F09F016
:1028A000FDC08981833008F4F0C08550833008F082
:1028B000F5C0EBC08B3009F4D3C038F5853009F48E
:1028C00067C0B8F48230E9F130F4813009F0E2C039
:1028D000198289E0EEC0833009F44DC0843009F0DC
:1028E000D9C04B816A8189810E9455249C838D8344
:1028F000D5C0873009F45AC008F455C0883009F4AF
:1029000055C0893009F452C0C5C0803109F481C076
:1029100060F48D3009F450C008F44BC08E3009F4D7
:102920004FC08F3009F45DC0B5C0823109F478C062
:1029300008F472C0833109F483C08E3F09F4A5C046
:10294000A9C08981823041F0833069F0813009F07B
:10295000A1C00E94C22D02C00E94FB139A838B83E8
:102960007C836D839BC08091F9029091FA02892B40
:1029700009F09CC093C08981823009F08BC06A81C4
:102980007B818C819D810E944E350E94051486C0FA
:102990002C813D813227232732274B816A8189810F
:1029A0000E9476247BC00E94212578C08FEF888307
:1029B00075C00E94482632C00E944A26998379C079
:1029C00089819A819827892798276B8170E06D31DA
:1029D000710508F063C0AE014C5F5F4F0E944D2649
:1029E0005DC08091F9029091FA02892B09F456C0DA
:1029F00089819A819827892798276B8170E06D31AA
:102A0000710508F04BC0AE014C5F5F4F0E9470260D
:102A100045C00E94912642C00E94422489833EC044
:102A200089819A819827892798276B8170E06D3179
:102A30007105A0F5AE014C5F5F4F0E9498252EC036
:102A400089819A819827892798276B8170E06D3159
:102A5000710520F5AE014C5F5F4F0E94B9251EC085
:102A60008091F9029091FA02892BC1F0CE010E9467
:102A7000782E2FEF81EE94E0215080409040E1F7D6
:102A800000C000000E941F2E09C0612FCE010E94CD
:102A90004C1604C0612FCE010E943E14612FCE015E
:102AA0000E94782EDF91CF911F91089580E00E94BF
:102AB000C7128A83F3CF81152CE7920759F48091CE
:102AC000F9029091FA02892B19F480E090E00895C0
:102AD00080E09CE70895E1E7F2E080E090E066E7BF
:102AE00079E14CEF58E126E838E177836683518736
:102AF0004087338722879587848701963E96883062
:102B0000910599F70895CF92DF92EF92FF921F936C
:102B1000CF93DF93CDB7DEB72A970FB6F894DEBF19
:102B20000FBECDBF80E5EDECF3E0DF011D928A958D
:102B3000E9F788E3E9E3F2E0DF011D928A95E9F71E
:102B40008DECC82E83E0D82E7F0110E0F701D182F2
:102B5000C082BE016F5F7F4F812F0E94CD24892BE1
:102B600079F488E0FE013196D60101900D928A95A4
:102B7000E1F789859A85D70113969C938E931297D6
:102B8000BAE0CB0ED11CE7E0EE0EF11C1F5F18304F
:102B9000E9F62A960FB6F894DEBF0FBECDBFDF91DF
:102BA000CF911F91FF90EF90DF90CF900895AAE012
:102BB000B0E0EDEDF5E10C945C3500EC11E08EEA4F
:102BC000C82E81E0D82EF12C9FE0E92E9924939411
:102BD00028E3A22E22E0B22EF601019311936F0199
:102BE000BE016F5F7F4F8F2D0E94F724892B09F064
:102BF00042C0F8018E2D11928A95E9F789819A8158
:102C0000F801918380838F8182838D81838388857E
:102C10008483898585838B819C81978386831086B5
:102C20008A8587FF03C01686158603C0F801B6861D
:102C3000A58680FF02C0F801908681FF04C0F801DC
:102C400090859260908782FF04C0F801908594601F
:102C5000908783FF04C0F80190859860908784FF77
:102C600004C0F80190859061908785FF04C0F80149
:102C7000808580628087015F1F4FF394F8E0FF1228
:102C8000ABCF2A96EBE00C9478350E946B150E942E
:102C900083150E94D7150895CF92DF92FF920F936C
:102CA0001F93CF93DF93CDB7DEB72A970FB6F89473
:102CB000DEBF0FBECDBF603209F0D0C1DC0111967E
:102CC000EC9111974E2F50E04E30510508F0C6C1DF
:102CD0008C01FA01EE59FF4F0C94483588E0E5E18C
:102CE000F1E0DE01119601900D928A95E1F780E204
:102CF000F80111928A95E9F786E0D8018C93119634
:102D00001C92119712961C92129713961C9213976D
:102D100088E0FE013196149601900D928A95E1F7B4
:102D20009DC188ECFD01808311821282138296C1BD
:102D3000DC0113968C91139790E0982F88271296B8
:102D40002C91820F911D092E000CAA0BBB0B55E094
:102D5000880F991FAA1FBB1F5A95D1F7AC01BD015F
:102D6000405E5F4F6F4F7F4F481759076A077B07D9
:102D700008F474C1883C9105A105B10508F06EC145
:102D8000493C51056105710520F048EC50E060E0D8
:102D900070E0481B590BBC01625A7E4FC8010E946B
:102DA0008C355CC140E250E06FEF70E00E94AB35C3
:102DB0008091F902F80180838091F7028183128269
:102DC000138281E08483858349C181E090E0909300
:102DD000F8028093F70282E390E09093F6028093EA
:102DE000F5020E94B62D9093F4028093F30236C14F
:102DF0008091F7029091F802892BC9F160E080E0A0
:102E00000E94B212D82E61E081E00E94B212F82E28
:102E10008091F3029091F4020E94CE2D85369105A7
:102E200000F1DD20F1F0FF20E1F00E94B62D90933B
:102E3000F4028093F3028091F5029091F6020197DB
:102E40009093F6028093F502892B89F41092F80290
:102E50001092F70281E090E09093FA028093F902D9
:102E600006C082E390E09093F6028093F502809191
:102E7000F902D8018C938091F70211968C931197E7
:102E80008091F50246C01092FA021092F902E6C053
:102E900040E250E0BC01FC01828193810E94BA1B98
:102EA000DDC0BC016F5F7F4F4FE150E0DC01129647
:102EB0008D919C9113970E94E91B0CC0BC016C5F23
:102EC0007F4F4CE150E0DC0112968D919C9113975D
:102ED0000E94041CF8018083C1C00E94861BBEC0F2
:102EE000DC011296EC918E2F90E08730910508F06E
:102EF000B5C0FC01E059FF4F0C94483580E2F80161
:102F000011928A95E9F788E0D8018C9311968C93F9
:102F1000119712968C93A2C0F80183813AE0F32EA8
:102F20009E012F5F3F4F6901D901EF2D1D92EA9558
:102F3000E9F7B9010E94A3246DC0D8011396FC9053
:102F40008AE0F8013496DE01119601900D928A957F
:102F5000E1F789819A810E945B159A8389838B812D
:102F60009C810E945B159C838B838D819E810E9436
:102F70005B159E838D838F8198850E945B15988752
:102F80008F83BE016F5F7F4F8F2D0E94B824F801A1
:102F900080830E946B1562C0D80113968C912AE041
:102FA000F22EFE0131966F01DF01EF2D1D92EA95A1
:102FB000E9F7B6010E94CD242DC0D8011396FC90EC
:102FC0008AE0F8013496DE01119601900D928A95FF
:102FD000E1F789859A850E945B159A878987BE01EA
:102FE0006F5F7F4F8F2D0E94E224F80180830E9443
:102FF000831534C0D80113968C919AE0F92EFE0106
:1030000031966F01DF01EF2D1D92EA95E9F7B601C8
:103010000E94F724D8018D93F60101900D92FA9445
:10302000E1F71CC0D8011396FC908AE0F8013496B1
:10303000DE01119601900D928A95E1F78B819C81BA
:103040000E945B159C838B83BE016F5F7F4F8F2D2A
:103050000E940C25F80180830E94D7152A960FB68E
:10306000F894DEBF0FBECDBFDF91CF911F910F91BE
:10307000FF90DF90CF900895A6E0B0E0E2E4F8E1A1
:103080000C94653590931E0480931D04811520E2F5
:10309000920718F40E949A0210C080EF89838A83F5
:1030A0000E94B62D8160682F9C838B8349815A8151
:1030B0007C8181E091E00E9452042696E2E00C942B
:1030C0008135A6E0B0E0E7E6F8E10C946535909331
:1030D0001E0480931D04811520E2920718F40E94BB
:1030E000B10210C080EF89838A830E94B62D81606F
:1030F000682F9C838B8349815A817C8181E090E099
:103100000E9452042696E2E00C9481350F931F939F
:10311000CF93DF938C01EB0161EE72E08C2F0E9464
:10312000A324892B09F04AC080913D0490913E046C
:10313000009741F0EFE9FFE03197F1F700C00000A0
:103140000197F6CFDD27C551DD4F8881F801128246
:103150001882833079F048F4813041F1823071F582
:103160008091E3029091E40209C0843051F08530EF
:10317000E9F024C08091E5029091E6020097B1F059
:103180001BC08091E7029091E8020097A9F420917A
:10319000E1023091E2028091E3029091E402211574
:1031A000310541F0009741F4C90106C08091E10268
:1031B0009091E202009711F00E946118DF91CF9187
:1031C0001F910F910895CF93DF93EC010E943C185B
:1031D00080913D0490913E04009741F0EFE9FFE0BB
:1031E0003197F1F700C000000197F6CFCE010E94A1
:1031F0006118DF91CF9108950F931F93CF93DF93C1
:103200008C01EB0161EE72E08C2F0E94A324892BCC
:1032100009F067C0DD27F8018281813039F495819A
:1032200092FD13C090FF11C082E00FC0823041F4C4
:10323000F801858182FD06C080FD06C083E005C0DF
:1032400086E003C085E001C084E0C551DD4F88837E
:103250008330B1F028F4813071F0823031F041C018
:103260008430A9F0853079F13CC08091E3029091DF
:10327000E4020097A1F58091E1029091E20220C062
:103280008091E5029091E6020097E9F028C08091D4
:10329000E7029091E802009711F58091E102909188
:1032A000E202009749F00E94E3188091E3029091B6
:1032B000E402009781F013C08091E3029091E40250
:1032C000009779F00CC08091E1029091E2020097A2
:1032D00041F00E94E3188091E1029091E2020E9485
:1032E0003C18DF91CF911F910F9108950F931F9379
:1032F000CF93DF938C01862F61EE72E00E94A324AE
:10330000892BB1F4C091E102D091E202209781F0C3
:10331000F8018281833039F4CE010E94E318CE0196
:103320000E94E31802C0843018F0CE010E94E31816
:10333000DF91CF911F910F910895AAE0B0E0E3EAE9
:10334000F9E10C9461358C017B0197558F3F910514
:1033500009F058F4BE016F5F7F4F802F0E94A324B5
:10336000892B19F489859A8504C0B701C8010E9488
:10337000301C2A96E6E00C947D35CF93DF93FB0159
:10338000258121114AC0EC01D755CF3FD10511F05D
:1033900008F043C061EE72E08C2F0E94A324892BB9
:1033A000E1F58EE08C9FF0018D9FF00D1124EF5818
:1033B000FD4F82818130C9F48091E1029091E20257
:1033C000892B59F18091E3029091E402892B29F134
:1033D0008091E5029091E602892BF9F48091E70251
:1033E0009091E802892B49F018C08230B1F48091A5
:1033F000E5029091E602892B81F02EE02C9FC0011E
:103400002D9F900D1124FC01EA58FD4F20812E7F45
:1034100020838F589D4F0E946C2B81E0DF91CF91CC
:103420000895A0E0B0E0E7E1FAE10C945D354430A6
:10343000510508F46CC04091C90341FBCC24C0F88D
:10344000D12CCC0CDD1C42FB882780F9C82FE0E092
:10345000DE2FCC0FDD1FCC0FDD1FCC2ADD2A40FB79
:10346000EE24E0F8F12CEC28FD2843FBAA27A0F974
:10347000B0E023E0AA0FBB1F2A95E1F7EA2AFB2A56
:1034800044FBEE27E0F9F0E034E0EE0FFF1F3A9541
:10349000E1F7EE29FF2945FB222720F930E055E02E
:1034A000220F331F5A95E1F72E2B3F2B46FB88271F
:1034B00080F990E0E6E0880F991FEA95E1F7822B0A
:1034C000932B47FB442740F950E05695542F44274F
:1034D00057954795842B952B2091CA03322F317035
:1034E000132F00E0082B192B26952170B22EBB0C50
:1034F000A12C0A291B29012E000C220B330BFB01E6
:10350000008311832283338380E090E002C08FEF39
:103510009FEFCDB7DEB7EAE00C947935CF92DF921A
:10352000EF92FF924430510508F46FC0FB01C08058
:10353000D180E280F3800E9453058091C903C0FAD4
:1035400080F9B701A601769567955795479540FB99
:1035500081F9B701A60122E07695679557954795C1
:103560002A95D1F740FB82F9B701A60133E07695A1
:103570006795579547953A95D1F740FB83F9B70181
:10358000A601E4E07695679557954795EA95D1F7BA
:1035900040FB84F9B701A601F5E07695679557954C
:1035A0004795FA95D1F740FB85F9B701A601A6E04A
:1035B0007695679557954795AA95D1F740FB86F97B
:1035C000B701A601B7E07695679557954795BA95E7
:1035D000D1F740FB87F98093C9038091CA03D0FAE1
:1035E00080F999E0F694E794D794C7949A95D1F727
:1035F000C0FA81F98093CA038091C9039091CA03EC
:103600000E94230F80E090E002C08FEF9FEFFF90B9
:10361000EF90DF90CF90089580911F049091200447
:103620000E94901F08959C01CA01F90132964591AC
:1036300054918417950750F0CB01F90134966591A8
:1036400074910E94A23580E090E008958FEF9FEF83
:1036500008950F931F93CF93DF930FE114E0C0E021
:10366000D0E0CE010E949124F80161918F0186176C
:1036700019F0CE010E949B242196C432D10589F70E
:10368000DF91CF911F910F910895DA019C012E5F78
:103690003F4FF90145915491F90125913491A217B9
:1036A000B30758F0FC013496859194910E94A2359D
:1036B0000E94291B80E090E008958FEF9FEF08950E
:1036C0000F931F93CF93DF930FE114E0C0E0D0E09E
:1036D000CE010E949124F80181938F012196C4327A
:1036E000D105B1F7C0E0D0E0FE01E05DFD4F85916E
:1036F0009491009711F0FC0109952C96C039D105E1
:1037000099F7DF91CF911F910F910895EFE1F4E0C8
:10371000128E138E8FEA90E09183808385E0848FF0
:1037200028E833E13383228322E330E0378B268B92
:1037300028EC30E0318F208F158E178E168E20E505
:1037400030E031A320A382A30E94291B0E945305CD
:103750001092CA031092C903EAECF3E080818460FE
:1037600080838091C9039091CA030E94230F0E9415
:10377000601B0895EF92FF920F931F93CF93DF93F7
:103780007C01EB018A016FEF70E0CE010E94AB3546
:1037900026E232E080E090E0AC014E5F5F4F04171C
:1037A000150790F0F90165917491E616F70630F46B
:1037B000FE01E80FF91F71836083CA01245F3F4F48
:1037C00042E0263B340741F7CDB7DEB7E6E00C9484
:1037D0007D359C0186E292E0FC01A591B4912A1707
:1037E0003B0741F00C96E2E0863B9E07A9F78FEF7E
:1037F0009FEF0895FC0136962591349121153105EE
:10380000B1F3F90109950895CF93DF93C6E2D2E0B1
:10381000FE01259134918217930731F02C9622E016
:10382000C63BD207A9F707C0FE013896259134910F
:103830002115310519F48FEF9FEF0FC0CE01F9016B
:103840000995009751F4FE013A968591949100975D
:1038500011F0FC01099580E090E0DF91CF9108958F
:103860008091370490913804089580913C048170D0
:10387000089580913C048695817091E08927089590
:1038800080913C0483FB882780F90895809135045A
:103890009091360408958832910550F48E31910547
:1038A000A0F4049700F180913A048295817012C0CF
:1038B0008933910530F48D32910578F48B9769F056
:1038C00012C08436910549F00EC080913A0483FB02
:1038D000882780F991E08927089580913A0482FB36
:1038E000882780F9F7CF80E0089580913A0485FB1E
:1038F000882780F9089580913A0486FB882780F90B
:103900000895CF93DF93FC01DB0115968C918823FA
:1039100009F4DDC09F0130572332310508F0D8C0CB
:10392000EF010E941E0F9093CA038093C903FE010A
:10393000E150F047E232F10520F4E958FF4F0C94D2
:1039400048358091C9038160AAC08091CA0388600C
:10395000B2C08091C9038260A2C08091C90320C017
:103960008091C90388609BC08091CA031EC080916A
:10397000CA038260A0C08091C903806190C0809119
:10398000C90380628CC08091C903806488C00E9492
:1039900053058091C903806882C08091C903886003
:1039A00084607DC08091CA038260816084C0809100
:1039B000C9038E7F74C08091CA03877F7CC08091C9
:1039C000C9038D7F6CC08091C90320C08091C90359
:1039D000877F65C08091CA031EC08091CA038D7F16
:1039E0006AC08091C9038F7E5AC08091C9038F7DC0
:1039F00056C08091C9038F7B52C00E9453058091AD
:103A0000C9038F774CC08091C903877F8B7F47C0E4
:103A10008091CA038D7F8E7F4EC08091C90382FB47
:103A2000222720F991E0922790FB82F990FB83F9FD
:103A300036C08091CA03982F909591708E7F892B04
:103A400090FB81F938C08091C90386FB222720F9B9
:103A500091E0922790FB86F922C00E945305809145
:103A6000C90387FB222720F991E0922790FB87F971
:103A700016C081E001C080E00E94AD0F1EC08091A1
:103A8000C90384FB222720F991E0922790FB84F957
:103A900006C08091C903982F909590FB80F9809380
:103AA000C9030BC08091CA0383FB222720F991E050
:103AB000922790FB83F98093CA038091C903909168
:103AC000CA030E94230F0E94530580E001C081E0D9
:103AD000DF91CF910895A0E0B0E0E1E7FDE10C9423
:103AE0006035E82FF0E0EA54FD4FD490282F26955A
:103AF0002695269530E0F901EA5AFC4F049187702B
:103B000010E0082E02C0159507950A94E2F701709F
:103B10001127F901EA5BFC4FE490F12C082E02C05A
:103B2000F594E7940A94E2F791E0E922FF24F90181
:103B3000EA5CFC4FC491D0E002C0D595C7958A9548
:103B4000E2F7C170DD270115110519F081EE0E9421
:103B5000B404E114F10419F086EE0E94B4048D2D32
:103B60000E941B05E114F10419F086EE0E94E604A0
:103B70000115110519F081EE0E94E604CD2B19F014
:103B80008CE20E941B05CDB7DEB7E7E00C947C35D4
:103B9000EF92FF920F931F93CF93DF93EC01162FB9
:103BA0000AE08881882309F455C0813009F043C0B8
:103BB0008981813041F47E0182E0E80EF11C8A8126
:103BC0000E941B0509C0823049F47E01E2E0EE0E3E
:103BD000F11C8A810E94B404E7012FC0833041F4B4
:103BE0007E01F2E0EF0EF11C8A810E94E604F4CF20
:103BF000843011F0219621C02A81229680E090E045
:103C000030E0205331092A30310558F4089FA001D3
:103C1000099F500D1124C901840F951F21962881F9
:103C2000EFCF009751F0EFE9FFE03197F1F700C0D7
:103C300000000197F6CF0E946B1D2196812F8823EB
:103C400009F4AFCFEFE9FFE03197F1F700C00000D2
:103C50008150F5CFCDB7DEB7E6E00C947D3560E05E
:103C60000E94C81D089580910401877F80930401FC
:103C700082E00E94A40D8091040184FF06C08F7E23
:103C80008093040182E00E948B0D8091040185FFE6
:103C900006C08F7D8093040180E20E948B0D0E94FC
:103CA000190E0895CF93DF93EC01662319F082E09B
:103CB0000E949E0DCE0190528115904318F4CE01C2
:103CC000992701C0CE010E949A02DF91CF910895F9
:103CD0009C0130522115304308F499270E94B1020B
:103CE0000895FC01FF2724E0F695E7952A95E1F772
:103CF0009C012F703327EE0FFF1FE550FD4F81E031
:103D000090E002C0880F991F2A95E2F7662329F0F8
:103D100020813181822B932B06C080959095208144
:103D2000318182239323918380830895FC0123E0D2
:103D3000F695E7952A95E1F7EE71FF27E550FD4FDF
:103D40008F70992721E030E002C0220F331F8A953F
:103D5000E2F7808191812823392381E0232B09F424
:103D600080E00895A0E0B0E0E8EBFEE10C9460355F
:103D7000EC017B01D42E89018091040182FF80C077
:103D800020912403309125032C173D0719F020972B
:103D900009F076C0909104019B7F9093040191FDFE
:103DA00011C08091260390912703A701481B590B4E
:103DB00061E080910501909106014817590718F4B8
:103DC00060E001C061E061708091040160FB81F9F5
:103DD00080930401C9010E94711E0E94880D81FF19
:103DE00008C08091040180618093040182E00E94F8
:103DF000910D0E94880D85FF08C0809104018062AA
:103E00008093040180E20E94910D60910401669507
:103E10006170A80180912403909125030E94521E95
:103E2000D11005C080913D0490913E0413C0B801AB
:103E300080912403909125030E94751C882391F39F
:103E4000B80180912403909125030E947B1C81116D
:103E5000E9CF2BC0009741F0EFE9FFE03197F1F790
:103E600000C000000197F6CF609104016695617073
:103E7000A80180912403909125030E94681E0FC021
:103E8000CE010E94961EA801682FCE010E94681ED6
:103E90008091240390912503C817D90711F40E943B
:103EA000331EF0922703E0922603CDB7DEB7E7E09A
:103EB0000C947C3580913A0480FF1EC080910401EF
:103EC00082FF1AC00E94B62D20912603309127034D
:103ED000AC01421B530B20910501309106014217A2
:103EE000530750F02BE133E041E0BC018091240303
:103EF000909125030E94B21E089580910401982F8D
:103F0000909590FB80F9809304010E94331E0895E0
:103F1000809104018E7F809304010E94331E0895D6
:103F200090930601809305010895A0E0B0E0EBE9CD
:103F3000FFE10C945F3520913A0420FF35C08B01DE
:103F4000EC010E94B62D6C01F8018581882379F17E
:103F50008091040182FF08C02BE133E040E0B6010C
:103F600080E090E00E94B21EC431FCE7DF0789F0D8
:103F7000C5312CE7D20751F0C3318CE7D80759F48B
:103F80008091040181608093040105C00E947D1F1F
:103F900002C00E94881FCE0190528115904370F597
:103FA0001092250310922403FF24F394E6C0C13E2F
:103FB000D10521F4809104018F7E06C0C53ED10554
:103FC00031F4809104018F7D8093040117C0CE01EC
:103FD00090528115904390F48091040182FFE4CFC8
:103FE000B801CE010E94391CF82E8823E9F22BE19A
:103FF00033E040E0B60180E090E0B9C08091040178
:1040000080FFD2CFB801CE010E944B1CF801F58091
:10401000882309F4AFC0FF2009F4A5C00E94880DD1
:10402000F82E0E94BA0D8F298D7FB9F010922503CA
:104030001092240380913A0481FD0FC060E0CE010C
:104040000E94711EA80160E0CE010E94521E0E94D3
:10405000BA0D8D7F0E94F40D81C089E0F801ABE1BB
:10406000B3E001900D928A95E1F71092200310922F
:104070001E0310921D038091240390912503C817FD
:10408000D90709F04BC0B801CE010E94751C8823E6
:1040900009F444C08091040181FD12C0809126037F
:1040A000909127037601E81AF90AB8018091240358
:1040B000909125030E949D19E816F90678F50AC02B
:1040C000B80180912403909125030E947B1C8111EB
:1040D000E5CF24C00E94880D81FF08C080910401B3
:1040E00080618093040182E00E94910D0E94880DFE
:1040F00085FF08C08091040180628093040180E202
:104100000E94910D6091040166956170A8018091F3
:104110002403909125030E94521E23C00E94880D03
:10412000182F0E94BA0D812B869581709091040101
:1041300080FB91F9909304010E94BA0D8D7F0E943B
:10414000F40DD0932503C0932403D0922703C0928B
:1041500026038091040184608093040182E00E9420
:10416000C30EF12C0AC0980140E0B601CE010E94B6
:10417000B21E03C0F11014CF17CF8F2DCDB7DEB70D
:10418000E8E00C947B350895EF92FF920F931F9314
:10419000CF93DF9380919B03882309F441C0C091A2
:1041A00028038DE0F82E80919B03C817A8F5EE2414
:1041B000E394EC0EE0922803D0E0FC9EF001FD9E1B
:1041C000F00D1124ED5CFC4F8481882319F1878167
:1041D0009085892B51F4818592858F3F2FEF92072F
:1041E00021F061E00E94C3200BC000811181228177
:1041F0003381448155816681778180850E94B30C2B
:10420000FC9EF001FD9EF00D1124ED5CFC4F14822C
:104210000E94AB0DCE2DC7CF10929B0310922803A6
:10422000CDB7DEB7E6E00C947D35089510929D037E
:1042300010929C03E9E3F2E08581811102C01482AF
:104240001682379682E0E137F807B1F70895BC018E
:104250004091310380913203942F981729F1292F2F
:1042600030E0F901EE0FFF1FE75DFC4F0190F08198
:10427000E02DE617F70799F487E0869FF001879F06
:10428000F00D1124E75CFD4F81E0848394130CC092
:104290002F5F3F4F237033272093310308952F5F03
:1042A0003F4F922F9370D9CF08956F927F929F9234
:1042B000AF92BF92CF92DF92EF92FF920F931F9334
:1042C000CF93DF93DB0114962C911497211160C0DA
:1042D000A0909B03E3E3F3E020E030E0B12C662400
:1042E0006394712C2A1508F051C0E384F484CD90B6
:1042F000DC9011976FEF7FEF912C492D50E08A01F0
:10430000000F111F0C0D1D1DE801088119810115F9
:10431000110531F0E016F10609F4BA019394EDCFDE
:104320006F3FDFEF7D0771F1E30102C0CC0FDD1FAE
:104330006A95E2F7BC2AB30102C0660F771F9A9410
:10434000E2F7AB01415051096B2D70E0461757075A
:10435000C1F412964D915C9113976DE0629FF0014C
:10436000639FF00D1124ED5CFC4F5087478324E0E0
:104370002483108211829287818721E015962C93E5
:1043800005C014822F5F3F4F3D96ACCF0E9427217E
:10439000DF91CF911F910F91FF90EF90DF90CF9021
:1043A000BF90AF909F907F906F9008951F93CF9391
:1043B000DF93C091310317E080913203C817A1F059
:1043C000D0E0FE01EE0FFF1FE75DFC4F8081918181
:1043D000189FB001199F700D1124675C7D4F0E94DA
:1043E00055212196C370E8CF0E94C4200E94162157
:1043F000DF91CF911F9108951F93CF93DF93DC013D
:10440000DC9111961C91119780E090E020E0ED2F57
:10441000F12FE20FF11DE20FF11D40815181411595
:104420005105B9F0FB01C081318190E0EC2FF32FF1
:10443000E90FF11DE90FF11D0190F081E02D30979A
:1044400031F04E175F0709F481E09F5FEFCF2F5FD8
:10445000DECF882321F0921728F0CD0104C080E040
:1044600090E001C0CB01DF91CF911F910895809121
:104470000701882341F180919E0390919F0300974B
:1044800011F10E94CE2D20919C0330919D0328179D
:104490003907C8F49091310380913203981759F08D
:1044A0000E94D62110929D0310929C0310929F03AC
:1044B00010929E0308950E94C42010929F031092B0
:1044C0009E030E941621089510929F0310929E034E
:1044D0001092070180913203809331030E941621CC
:1044E0000E94C420089580910701882319F00E943A
:1044F0006422089581E0809307010895ADE0B0E063
:10450000E4E8F2E20C9455354C016B0180352CE760
:10451000920741F4FB0115811123C9F081E08093DA
:104520000701ABC18135FCE79F0739F4FB01158119
:10453000112369F00E946422A0C182359C4739F49E
:10454000FB011581112319F00E94732296C18091FD
:104550002F010E94F403182F0E941521181731F023
:10456000F601608171810E9479114C0169E3E62EA8
:1045700062E0F62EA12CB12C1C8666246394712C6B
:10458000CE0101969B878A87F701208131814424DF
:104590004A94542C212C822D90E0FC01EE0FFF1F39
:1045A000E20FF31F408151814115510531F084160E
:1045B000950609F42C012394EECFFFEF4F165F060A
:1045C00009F405C1F7016481611103C080910701FD
:1045D00002C080E090E08170F6013580332009F45C
:1045E00092C0882309F48FC0B701C5010E94461C00
:1045F0008C01F7018581811114C0C301042C01C015
:10460000880F0A94EAF79681892B868380919C0310
:1046100090919D038017910720F410939D030093C0
:104620009C039301022C02C0220F331F0A94E2F76D
:1046300021503109F701868190E02817390709F0E8
:10464000C7C080919E0390919F03009749F00E94FC
:10465000CE2D0817190720F421E0F7012483B8C0F4
:1046600020903103409132034D8780E090E0ED854A
:104670002E1699F1422C512CF201EE0FFF1FE75D2F
:10468000FC4F80819181E7E0E89F8001E99F100D58
:104690001124075C1D4FB701C8010E94FC2100973F
:1046A000A9F021E0FC0124838E159F0509F490C038
:1046B0002091310322120AC08017910739F4920128
:1046C0002F5F3F4F237033272093310392012F5FD9
:1046D0003F4F422F4370242ECACFE816F90609F443
:1046E00077C0422C512CF201EE0FFF1FE75DFC4F0B
:1046F000B182A082FFEF4F1A5F0A23E042225524C5
:104700004092320365C0F70195812681911115C051
:10471000A301022C02C0440F551F0A94E2F7415036
:10472000510930E04217530709F043C0662309F4EA
:1047300041C0C5010E9427213CC0822F90E09C010E
:104740002150310928233923042C02C095958795DF
:104750000A94E2F7232B59F580FF29C0F7018281E3
:104760009381892BE1F0EA85FB8529E011922A9556
:10477000E9F70E94B62D282F8B839C8344E04D835C
:10478000F70182819381782F8887998709811A811F
:104790003C815E816F81892F0E94B30C04C060E070
:1047A000C5010E94C320F701158281E003C081701A
:1047B00001C080E09301042C01C0220F0A94EAF7A3
:1047C0002095F701968129232683382E01C0312CAC
:1047D000FC85F329FC872FEFA21AB20A47E0E40E0A
:1047E000F11C88E0A816B10409F0CECEF60185814F
:1047F000882379F1FC85FF2361F10E94B62D909307
:104800009F0380939E0380919B03883098F591E0ED
:10481000980F90939B0399E0F601DE0111960190A9
:104820000D929A95E1F72DE0829FC00111248D5CD5
:104830009C4F29E0FE013196DC0101900D922A95F2
:10484000E1F72FEF3FEFFC013287218794868386C3
:1048500011C09091310380913203981719F00E9492
:10486000D62108C00E94C42010929F0310929E037C
:104870000E94162111E0FC851F27812F2D96E2E171
:104880000C94713584E0089550E0440F551F2AE0E0
:10489000629F400D511D11249A016AE0869F200DF0
:1048A000311D1124C901899608950F931F93CF9349
:1048B000DF938430A0F4611112C0453080F40E946F
:1048C00044248C010E94C23590E0D82FCC27C80127
:1048D00001960E94C2359E01282BC90102C080E0CA
:1048E00090E0DF91CF911F910F9108950F931F9347
:1048F000CF93DF93843080F461110EC0453060F4B3
:10490000E9010E9444248C016D2F0E94E0356C2F38
:10491000C80101960E94E035DF91CF911F910F9160
:1049200008958432910528F48F5A9F4F0E94C23512
:10493000089580E008958432910520F48F5A9F4FA6
:104940000E94E0350895883080F49B01982F8AE01A
:10495000989FB00111246B587F4F4AE050E0C90185
:104960000E94B23580E090E008958FEF9FEF0895A8
:10497000883080F49B01982F8AE0989FB001112421
:104980006B587F4F4AE050E0C9010E94043680E036
:1049900090E008958FEF9FEF0895883080F49B0199
:1049A000982F8AE0989FB00111246B537F4F4AE003
:1049B00050E0C9010E94B23580E090E008958FEF89
:1049C0009FEF0895883080F49B01982F8AE0989F8C
:1049D000B00111246B537F4F4AE050E0C9010E949F
:1049E000043680E090E008958FEF9FEF08958830BF
:1049F00080F49B01982F8AE0989FB00111246B5E90
:104A00007E4F4AE050E0C9010E94B23580E090E05C
:104A100008958FEF9FEF0895883080F49B01982FC1
:104A20008AE0989FB00111246B5E7E4F4AE050E00F
:104A3000C9010E94043680E090E008958FEF9FEF57
:104A40000895AEE1B0E0E7E2F5E20C945F35C09086
:104A5000F902D090FA0281E090E09093FA028093FC
:104A6000F90200E010E0F12C0E944F0290E00817DC
:104A700019071CF021E030E006C04F2D60E0802FC8
:104A80000E9451029C014F2D60E0802F0E947624ED
:104A9000F39485E0F812E8CF0F5F1F4F0430110543
:104AA00011F70E94861B1E8A1D8A188E1F8A1A8E75
:104AB000198E1C8E1B8E88EC90E09E8F8D8F10E0DF
:104AC000BE016B5E7F4F812F0E94B8241F5F18309C
:104AD000B9F77E019BE0E90EF11C8AE0F701119223
:104AE0008A95E9F710E0B701812F0E94E2241F5F49
:104AF0001830C9F7CE0101967C018AE0F7011192C6
:104B00008A95E9F78FEF9FEF9E838D8387E08A87F1
:104B100010E0B701812F0E940C251F5F1830C9F7E4
:104B2000D092FA02C092F9026E96E8E00C947B35BE
:104B3000EF92FF920F931F93CF93DF93EA017A01D5
:104B4000E60EF71E8C01C8018996CE15DF0561F0CF
:104B50000832110520F40E94C235888301C01882F2
:104B600021960F5F1F4FEFCFCDB7DEB7E6E00C9475
:104B70007D35A0E0B0E0EFEBF5E20C945935EC01A7
:104B80006B017A01889708F072C088E290E08C1B74
:104B90009D0B8617970708F46AC03E0129E2620E52
:104BA000711C8091F9029091FA02892B19F0CE0CB8
:104BB000DF1C58C0C0FF11C0CE0188960E94C235CC
:104BC00090E0982F8827F7012081822B81159C4740
:104BD00039F48FEFF701808303C000E010E002C0DA
:104BE00001E010E0CE018C0D9D1D560180FF17C025
:104BF000F1E0AF1AB10847018A0C9B1CC3018C0D70
:104C00009D1D0E94C235F401208130E0322F222701
:104C1000282B21153C4719F48FEFF4018083F7010D
:104C2000E00FF11F2FEFCF018E199F098A159B0509
:104C300008F0BDCF808190E0982F88273181832BA9
:104C400081159C4711F4208321833296ECCFC83222
:104C5000D10520F4F70160810E94E035FFEFEF1AE3
:104C6000FF0A2196CE018996EC14FD0481F7CDB799
:104C7000DEB7EEE00C947535843038F4611105C070
:104C8000453018F40E945524089580E090E008957E
:104C900080E108958BE992E00895EF92FF920F93DF
:104CA0001F93CF93DF93EA017A01E60EF71E8C0182
:104CB000C8018B599E4FCE15DF0569F00B3922E0F4
:104CC000120720F40E94C235888301C01882219601
:104CD0000F5F1F4FEDCFCDB7DEB7E6E00C947D350B
:104CE000EF92FF920F931F93CF93DF93EA017A0124
:104CF000E60EF71E8C01C8018B599E4FCE15DF05BD
:104D000059F00B3922E0120718F468810E94E0354F
:104D100021960F5F1F4FEFCFCDB7DEB7E6E00C94C3
:104D20007D35CF93DF93C5E6D1E060E0CE010E94F0
:104D3000E0352196C11584E0D807B9F7DF91CF910E
:104D40000895A4E0B0E0E7EAF6E20C945B35F82EB3
:104D50002FE0281708F4B4C08FEF93E00E94C2350B
:104D60008111AEC005E611E0FF2071F0011584E06D
:104D7000180709F4A5C0C8010E94C235811101C0FD
:104D8000FA940F5F1F4FF0CF19821A821B821C8288
:104D9000CC24CA947801EFEFEE1AFE0AC8010E94F3
:104DA000C23589831A82882309F48AC0813009F0C8
:104DB00081C05801F2E0AF0EB11CC7010E94C2359C
:104DC000D82E8A83882309F47BC08FEF8D0D833022
:104DD00088F4780123E0E20EF11CC5010E94C2357F
:104DE0008B83811102C08701D5CFCE0101960E942D
:104DF0002F1EF9CF8BEF8D0D833078F5480183E0BE
:104E0000880E911CC5010E94C2358B83811102C09E
:104E10007401E9CF7801E4E0EE0EF11CC4010E94B8
:104E2000C2358C838823F9F22B813C812130FFEF3E
:104E30003F0718F0922F80E001C0C90126E0D2168A
:104E400031F0E7E0DE1631F00E94E318CCCF0E948B
:104E50003C18C9CF0E946118C6CFF4E0DF1611F0EC
:104E60007501C1CFC5010E94C235D82E780124E05A
:104E7000E20EF11CC80103960E94C235DD2001F14B
:104E80008823F1F0282F30E021503109C29EA00183
:104E9000C39E500D11248D2D90E00197840F951F16
:104EA000019708F4A0CFEFE9FFE03197F1F700C0D8
:104EB0000000F6CF60E0CE0101960E94C81D93CF9E
:104EC0002496ECE00C947735CF93DF9386319C47A2
:104ED00009F042C0EB010E94880D982F9A7A209128
:104EE000390420FF04C0382F347409F090E021FF0A
:104EF00004C0382F317109F090E022FF04C0382F30
:104F0000387809F090E023FF03C0827209F090E046
:104F10008D812091000130910101882379F081E099
:104F2000911101C080E08093A003911102C069E259
:104F300001C065E3C9010E94012D0AC08091A00350
:104F4000811102C069E201C065E3C9010E94042D1C
:104F50000E94190E80E001C081E0DF91CF91089599
:104F6000FC0184818623C1F492819923B9F0808564
:104F7000692383FF04C081E0611111C00DC0892F36
:104F80008F7092959F70982B862F8F7062956F709F
:104F9000682B81E0961719F080E0089581E008956C
:104FA000CF93DF93EC016091AB037091AC038091E0
:104FB000AD039091AE030E94DD2D643F71408105E9
:104FC0009105A8F48091AB039091AC03A091AD033F
:104FD000B091AE038093A7039093A803A093A90375
:104FE000B093AA0384EF91E0A0E0B0E00EC00E946D
:104FF000C22D6093A7037093A8038093A903909395
:10500000AA0382E390E0A0E0B0E08093A303909332
:10501000A403A093A503B093A603D093A203C093C7
:10502000A103DF91CF910895FF920F931F93CF9328
:10503000DF930091B2031091B3030115110509F438
:1050400062C0F82E1092A2031092A1030E94B70D25
:105050000E94B10D0091B2031091B303D8011696CE
:105060006D917C911797CB019A9581159F4108F41A
:10507000707EC62FD1E0611101C0D0E0D801199631
:10508000ED91FC911A97309739F01B966D917C91B8
:105090001C9780E00995D823DD2389F08CEF8C0FD5
:1050A000813A40F46C2F80910001909101010E949F
:1050B000042D05C00E94190E8C2F0E94E604E09179
:1050C000B203F091B30340815181FF2071F08085DC
:1050D00084FD0BC08091B103882339F091E09A01DF
:1050E000215031092F333E4708F090E090FF03C074
:1050F000CA010E94D0270E94190E1092B303109289
:10510000B2031092B103C801CDB7DEB7E5E00C944D
:105110007E351092080180E00E9414280895809145
:105120000801882319F00E948928089581E080935E
:10513000080108950F931F938091A1039091A203FA
:10514000892B89F16091A7037091A8038091A9032D
:105150009091AA030E94DD2D0091A3031091A40356
:105160002091A5033091A60360177107820793076A
:10517000D0F08091A1039091A2030E949A02109214
:10518000A2031092A1031092A7031092A8031092F9
:10519000A9031092AA031092A3031092A4031092E1
:1051A000A5031092A6031F910F910895A9E0B0E006
:1051B000ECEDF8E20C9455358C017B836A83DB01BE
:1051C00015963C903320B1F08E35BCE79B0751F02B
:1051D0008F35ECE79E0759F08D359C4759F40E94B6
:1051E0008F2803C081E080930801412CA1C10E9457
:1051F0008928FBCF40900801411003C04424439408
:1052000097C1580120EEA21AB1080E94880DF82E0D
:105210000E94400D582E0E94BA0D85298F2938E032
:10522000A316B10490F4A8014770552721E030E09F
:1052300001C0220F4A95EAF7332019F0582E522A5E
:105240001AC0522E5094582216C0582E332009F4FA
:105250002DC11093B0030093AF030E94C22D609341
:10526000AB037093AC038093AD039093AE031092A5
:10527000A2031092A103AA81BB818D919C910E94EF
:105280000A0980900201909003018114910409F4AD
:1052900024C121E030E0F90102C0EE0FFF1F8A9522
:1052A000E2F7FF83EE832091B2033091B3033B8397
:1052B0002A834091AF035091B0035D834C83212C2E
:1052C000632C712CF401E20DF11DE20DF11D8081C2
:1052D000918199878887009709F4FFC0511005C014
:1052E000DC0112968C918111DFC0E885F9858381FC
:1052F00090E02E813F8182239323892B09F4D4C02F
:105300008085982F977009F487E038E0A316B104E0
:1053100040F4332019F081FD09C0C6C082FD06C0EB
:10532000C3C0332009F4C0C080FFBEC0A885B985C2
:10533000CD90DC900C151D0519F4332009F4B4C090
:10534000E885F9852A813B81E217F30709F4ACC0AF
:105350000584F685E02D309721F08081882309F4BB
:10536000A3C0652D888599850E94B027882309F4FC
:105370009BC00C151D0511F4730102C0E12CF12C2A
:105380003E2D3170398381E0C114D10441F03111D7
:1053900006C04C815D81C416D50609F080E080FF0F
:1053A00083C080E00E941428888599859093B30378
:1053B0008093B20381E08093B103A885B9851596E7
:1053C0008C910E94B40DB981B11117C0C114D104E0
:1053D000A1F0E885F985808191819C0124503109F3
:1053E000213A310540F4682F80910001909101012C
:1053F0000E94042D02C00E94E604A885B985169675
:105400000D911C911797C8019A9581159F4108F439
:10541000107EDD24D394C80101978F339E4708F096
:10542000D12CA885B9851996ED91FC911A973097E2
:1054300039F01B966D917C911C9781E00995D822DB
:10544000DD2041F1E885F985868197810E9463021C
:105450000E94AE0DC801F8E0AF16B10418F40E9426
:10546000D02718C00497813A910540F4602F8091AD
:105470000001909101010E94012D0EC00E94190EA1
:105480008FE39CE90197F1F700C00000802F0E9494
:10549000B40402C00E94190E91E0E926E0FC46C067
:1054A0000E94190E80E043C023940CCF8091AF037B
:1054B0009091B0030817190781F41092B00310926D
:1054C000AF031092AB031092AC031092AD03109295
:1054D000AE031092A2031092A1038091B2039091A7
:1054E000B303009709F48ACEA8E0AA16B10438F4F1
:1054F000652D0E94B027811181CE81E014C0FC018E
:10550000208131810217130729F4311006C010924F
:10551000B10308C0332009F471CEDC0118968C91D8
:1055200085FD6CCE80E00E94142802C081E0482EE8
:10553000842D2996E2E10C947135A0E0B0E0E3EA15
:10554000FAE20C945D357C015B01C42FD22FFC0183
:1055500085818823B1F04093B6030E94B62D9093C5
:10556000B5038093B40380E28C0F883008F052C0FA
:10557000C77081E001C0880FCA95EAF70E9429052B
:1055800049C08091B603481335C08091B40390910F
:10559000B5030E94CE2D6C01B701C5010E949D1973
:1055A000C816D90638F510E21D0FCD17B9F080E204
:1055B0008C0F883040F4C77081E001C0880FCA9515
:1055C000EAF70E943005183010F581E09D2F9770A2
:1055D00001C0880F9A95EAF70E942905802F0E9442
:1055E0001B051830B8F4D77081E001C0880FDA9538
:1055F000EAF70AC080E28C0F883060F4C77081E05F
:1056000001C0880FCA95EAF70E94300503C0802FB9
:105610000E941B05CDB7DEB7EAE00C9479350F93F5
:10562000FC01E851FC47E730F10590F5CB01E75666
:10563000FF4F0C94483506E221EE41EE6AE17CE72B
:1056400023C007E225EE45EE6BE17CE71DC006E2D4
:1056500021EE40EE68E17CE717C007E225EE44EE5C
:1056600069E17CE711C006E221EE42EE6CE17CE7E5
:105670000BC007E225EE46EE6DE17CE705C008E2CF
:1056800021E045EE6EE17CE70E949D2A80E008C0A3
:10569000FB018581882319F01092B60301C081E0D7
:1056A0000F910895CF93DF93EC01EA85FB85309746
:1056B00019F06C857D8509958B810E94A40D8C81E4
:1056C0000E94910D0E94190E86E0FE0111928A95AA
:1056D000E9F7DF91CF910895CF93DF93EC018D81AE
:1056E00081FD12C082608D838B810E949E0D8C8112
:1056F0000E948B0D0E94190EE885F985309721F0E4
:105700006C857D85CE0109951092BA031092B9037C
:105710008D8180FD03C0CE010E94522BDF91CF917D
:105720000895CF93FB01C581CC2301F12091B903EA
:105730003091BA0321153105C1F028173907A9F0B6
:10574000AC01FEE02F9FC0011124FC01EA58FD4F7F
:105750002081246020838F589D4FFC01518340831A
:105760000E946C2B0E94AB0D01C0C0E08C2FCF912A
:105770000895EF92FF920F931F93CF93DF939C01B5
:1057800037552F3F310511F008F04EC0DB018C0179
:105790007C01FF248EE0089FF0011124EF01CF5817
:1057A000DD4F15969C911597EA58FD4F808190FB2F
:1057B00080F9808315969C91992389F10E94B62DDA
:1057C0009093B8038093B7038A818F5F8A830E9486
:1057D000880D8B830E949B0D9B81892B8B830E945C
:1057E000BA0D8C83EE81FF81309721F06C857D8529
:1057F000CE0109958EE08E9DF0018F9DF00D112454
:10580000EA58FD4F808181FD03C0902F812F02C097
:1058100090E080E09093B9038093BA0305C081FFC4
:1058200003C0CE010E94522B81E0CDB7DEB7E6E087
:105830000C947D35A9E0B0E0E0E2FCE20C94633525
:105840008091B9039091BA03892B41F18091B703FC
:105850009091B8030E94CE2D8C01BE016F5F7F4FE7
:1058600089E0FB0111928A95E9F78091B903909143
:10587000BA030E949D198017910780F48091B903A3
:10588000FEE08F9FC0011124FC01EA58FD4F2081EA
:1058900022FD04C08F589D4F0E946C2B2996E4E096
:1058A0000C947F351F93CF93DF9387372CE79207B4
:1058B00021F088379C4759F031C0FB01C581CC23CA
:1058C00019F00E94942C09C00E94942C18C0FB016E
:1058D000C581CC2391F00E94972C0E9470080E94F1
:1058E0009A2CD82F0E94972CC82F0E94942C4D2FB1
:1058F0006C2F0E948F09C0E012C00E94972C0E945A
:105900007C080E949A2C182F0E94972CD82F0E9456
:10591000942C412F6D2F0E948F0901C0C1E08C2F64
:10592000DF91CF911F91089580910B01089580918F
:105930000A010895809109010895909323018093AD
:10594000220108959093BC038093BB030895E091D6
:10595000BB03F091BC03309729F00190F081E02D5A
:105960000995089580E00895E091BB03F091BC0390
:10597000309721F00280F381E02D09950895FC0114
:10598000329697E080E0915029F021912223D9F3BB
:105990008F5FF9CF0895662349F0FC01329608968F
:1059A0002191621729F0E817F907D1F780E00895EF
:1059B00081E008959C01FC0132969FEF80E04191C7
:1059C000461789F09F3F19F4411101C0982F8F5F4E
:1059D0008630A9F79F3F39F0F901E90FF11D97FDD6
:1059E000FA956283089508959C012A5F3F4FFC0158
:1059F0004281461301C01282019682179307B9F7BC
:105A000008950E94DA2C08950E94F42C08950296BD
:105A100026E0FC0111922A95E9F7089508950E9465
:105A20000E2D089583E08093BD030E940F2D0895ED
:105A3000811102C081E001C082E08093BD030E9419
:105A40000F2D08950E94182D089581E08093BD03C5
:105A50000E940F2D08950E94252D089508950E94FB
:105A60002E2D08950E942F2D08950E942E2D089509
:105A70000E942E2D08950E942E2D08950E94382DEB
:105A80000E9448130E94352D80E00E94C71291E0C9
:105A9000811101C090E0892F089585B7806885BF86
:105AA00085B7806885BF08951F920F920FB60F9239
:105AB00011248F939F93AF93BF938091BE03811165
:105AC00013C08091430490914404A0914504B09187
:105AD00046044196A11DB11D809343049093440454
