:100000000C9489010C94A6010C94A6010C94A601F1
:100010000C94A6010C94A6010C94A6010C94A601C4
:100020000C94A6010C94A6010C94331F0C94072089
:100030000C9466190C94A6010C94A6010C94A601CC
:100040000C94A6010C94A6010C94A6010C94A60194
:100050000C94A6010C94ED190C94A6010C94A60125
:100060000C94A6010C94A6010C94A6010C94A60174
:100070000C94A6010C94A6010C94A6010C94A60164
:100080000C94A6010C94A6010C94A6010C94A60154
:100090000C94A6010C94A6010C94A6010C94A60144
:1000A0000C94A6010C94A6010C94A6010400050072
:1000B00006000700080000000000000000002A2BD6
:1000C0002800000000000000000000000000000008
:1000D0000029000000002C1E342021222434262771
:1000E000252E362D3738271E1F2021222324252692
:1000F0003333362E37381F0405060708090A0B0C60
:100100000D0E0F101112131415161718191A1B1CA7
:100110001D2F3130232D350405060708090A0B0C65
:100120000D0E0F101112131415161718191A1B1C87
:100130001D2F3130354C0000000000000000000091
:1001400000000000000000000000000000000000AF
:10015000000000000000000000007E0F00D4FFFF40
:10016000FFC700000078140363006F006F006C008D
:100170007000610064003100330000000A036D006C
:100180002E006B00690000000403090409025B00F3
:10019000030100A0FA090400000103010100092184
:1001A0001101000122400007058103080001090434
:1001B00001000203000000092111010001222200B8
:1001C000070582032000010705030320000109043D
:1001D0000200010300000009211101000122B60004
:1001E00007058403200001120100020000000843FB
:1001F0004D13100001010200010660FF0961A10119
:100200000962150026FF0095207508810209631513
:100210000026FF00952075089102C005010902A182
:100220000185020901A10005091901290815002508
:1002300001950875018102050109300931158125F3
:100240007F95027508810609381581257F9501750E
:10025000088106050C0A38021581257F950175086D
:100260008106C0C005010980A101850319012AB7D3
:1002700000150126B700950175108100C0050C0915
:1002800001A101850419012AA002150126A00295E9
:100290000175108100C005010906A1018506050749
:1002A00019E029E715002501950875018102050768
:1002B000190029EF1500250195F075018102050847
:1002C00019012905950575019102950175039101A3
:1002D000C005010906A101050719E029E715002558
:1002E00001950875018102950175088101050719BD
:1002F0000029FF150026FF009506750881000508F6
:100300001901290595057501910295017503910162
:10031000C00011241FBECFEFDAE0DEBFCDBF11E079
:10032000A0E0B1E0EAE3F5E402C005900D92AE383A
:10033000B107D9F722E0AEE8B1E001C01D92A937BC
:10034000B207E1F70E948A0F0C9472220C9400000D
:1003500081E0089581E0089581E008950E94AC0154
:10036000089508950E94B1010895A5E0B0E0EBEB77
:10037000F1E00C94DE2149835A8330919501898103
:100380009A81311119C0662399F0222389F00E94C5
:100390002F07182F682F89819A810E94140769817D
:1003A0007A81812F0E9457162596E3E00C94FA215A
:1003B0000E942107182FF3CF0E942F0769817A81AD
:1003C000F1CFFC01262F40815181628173818481AC
:1003D0000E94B501089581E00895CF93DF93EC0169
:1003E00060E00E94E101BE010E94B201DF91CF9165
:1003F0000895E1E0F0E0DF0102C0AA0FBB1F6A959B
:10040000E2F7BD01DF0102C0AA0FBB1F4A95E2F768
:100410006A2B01C0EE0F2A95EAF7962F98239613C0
:1004200002C08E2B0895E0958E230895242F462F29
:10043000682F809199010E94F9010E947406089525
:100440000E94B40E08950E94B80E089508950E9467
:1004500006060E9426022FEF84E39CE02150804094
:100460009040E1F700C0000008950E9427020E941A
:10047000111A08950E9427020E94221A08950F93CC
:100480001F93CF93DF938C0161E00E94E101EC01A7
:10049000B8010E948012811106C080E0DF91CF91E7
:1004A0001F910F910895B801CE010E94AE018823DB
:1004B000A1F3B801CE010E949D17882371F3B80102
:1004C000CE010E946013882341F3B801CE010E943F
:1004D0000F17882311F3F8018281882361F0CA3550
:1004E000FDE5DF0701F158F4C115ECE5DE0791F0F9
:1004F000CE3DDC4591F0C8010E94AA01CFCFCC359A
:100500008DE5D80769F090F0C73ADD45A1F70E9464
:100510003A02C3CF0E943502C0CF0E94E80BF7CF4A
:100520000E94220BE8CF0E942C0BE5CF0E94300BDB
:10053000E2CF0E9448190E94B60208950E94BA02B2
:100540000E944D19089508950E94A302089581E024
:1005500008950E94A70208950895CF93C82F0E947E
:10056000A4028C2F0E94A902CF91089580E00E94DE
:10057000AD0208950E94F9170E94AD020895CF932D
:100580000E94F917C82F809190018C1779F0C093C1
:1005900090010E94D219609391017093920180930F
:1005A0009301909394018C2F0E94AD02CF910895F6
:1005B000ABE0B0E0EEEDF2E00C94DF214F83588722
:1005C00069877A878B8761110E946D0A1E821D825E
:1005D00085E0FE013796DE01119601900D928A9515
:1005E000E1F78C819D81892B61F449815A816B816E
:1005F0007C818D819E810E9496092B96E2E00C946D
:10060000FB2189819A8189238F3F79F3CE0101965D
:100610000E94EB018111E9CFF0CFFC018081918133
:100620000E945C070895CF93C82F8823B9F08CEF00
:100630008C0F813AA8F46C2F8091000190910101F8
:100640000E946E18882329F08C2F0E942D0A0E9488
:100650008E0A8C2F0E94250A0E948E0ACF9108953F
:1006600080E28C0F883048F4C77081E001C0880FA9
:10067000CA95EAF70E94500AEFCFEBE5EC0FE330A2
:1006800040F4F0E0EB5BFE4F808190E00E942E187A
:10069000E5CFE8E5EC0FE73150F4F0E0EE0FFF1F97
:1006A000E95EFE4F808191810E944418D7CFC03F00
:1006B000A8F28C2F0E940E100E94E110CFCF882349
:1006C00079F19CEF980F913A28F40E942D0A0E942C
:1006D0008E0A089590E2980F983050F4877091E058
:1006E00001C0990F8A95EAF7892F0E94560AEFCF29
:1006F0009BE5980F933028F490E080E00E942E183C
:10070000089598E5980F973128F490E080E00E94D2
:1007100044180895803F20F00E9468100E94E11064
:1007200008951F93CF93DF93182FEB010E941303BB
:10073000209739F4812F0E945F03DF91CF911F91A1
:1007400008958FE99FE00197F1F700C0000021971D
:10075000EFCF70E060E0893311F460E570E00E9453
:1007600091030895882321F00E94500A0E948E0A66
:100770000895882321F00E94560A0E948E0A089547
:10078000B0E0A0E0E6ECF3E00C94D8216C01D62FA9
:10079000C72FFC011281F580F2949FE0F9220E949C
:1007A000460AE82E8823B9F0E12E1123A1F08C2F00
:1007B000807F803421F080E28D0F8830D0F08091EE
:1007C000650282FF16C082E00E94F10A0E94460A7A
:1007D00091E0E82EE926BC2EB2948FE0B822FBE02F
:1007E000FB1508F468C0EB2DF0E0EC58FD4D0C94BF
:1007F000C221E12CF0CF0C2F0F70C07F11F00295B9
:10080000007F112399F0002359F080E28D0F88308A
:1008100010F0D11107C0802F0E94500A0E948E0A4A
:100820008D2F41C0802F0E94600AF8CF8D2F0E942B
:100830005F03002309F43FC080E28D0F883010F081
:10084000D11104C0802F0E94560A03C0802F0E943D
:10085000660A0E948E0A2FC00C2F0F70C07FC03214
:1008600011F00295007FDD2381F0D13009F463C0DF
:10087000112309F46DC0FF2009F463C0F6018581DE
:1008800080FFCECF8F7085835CC08091650282FD32
:1008900033C0112359F0002329F0802F0E94500A01
:1008A0000E948E0A80E00E94130305C080E00E942F
:1008B0005F030111C7CFEB2DE850FF0B349720F4F5
:1008C0000E94F9170E94AD02EE2089F00E94420AB0
:1008D00080FD0DC0F60112820E943C0A0E9488062B
:1008E000C6010E94C6050E943C0A0E949406CDB72C
:1008F000DEB7E9E00C94F421112389F0F11006C071
:100900000E94700A802B0E94B203D5CF21E0F21220
:10091000F7CF0E94700A802B0E94770ACCCFF1108B
:1009200006C00E94840A802F0E94B903C4CF31E020
:10093000F31609F2F6CF112331F085E08F1508F494
:10094000BACF802FE0CF94E09F1508F4B4CFEBCF5F
:10095000FF2049F3D93349F4FFEF27EE33E0F1509C
:1009600020403040E1F700C000008D2F0E945F035F
:10097000A2CF8C2F86958695837069F0813009F01F
:100980009ACF8D2F9C2F9370111102C090E080E0C0
:100990000E94441890CF8D2F9C2F9370111102C08C
:1009A00090E080E00E942E1886CF8D2F112329F031
:1009B0000E940E100E94E1107ECF0E946810FACFB4
:1009C0008C2F837079F5111176CF4D2F4295469576
:1009D0004770440F440F8D2F8F70042E01C0880F75
:1009E0000A94EAF72D2F2071D4FF07C02FE030E0E2
:1009F00001C0220F4A95EAF72095C695C695C370A7
:100A0000822BC23049F058F4C13019F00E946206BE
:100A100052CF0E945C064FCF0E9468064CCF0E94C6
:100A2000590649CF8695112311F08C2F81708823A8
:100A300009F441CF4D2F429546954770440F440F1E
:100A40008D2F8F70042E01C0880F0A94EAF72D2F86
:100A50002071D4FF07C02FE030E001C0220F4A957B
:100A6000EAF72095C695C695C370822BC23049F02F
:100A700058F4C13019F00E94B3061DCF0E94AD0694
:100A80001ACF0E94B90617CF0E94740614CFCF70F8
:100A9000112329F08C2F0E9488068D2F34CF8D2FA3
:100AA0000E94B9038C2F0E94940605CFD23F51F1CA
:100AB00060F4D03FB9F0D13F81F0112309F449C06F
:100AC000F110AECE8C2F8F7121C0D33F11F1D43FE6
:100AD000A1F78091650282FD26C08C2F8F711123B2
:100AE00011F314C0112349F084E08F1508F4E3CE0C
:100AF0008C2F8F710E94A106DECE95E09F1508F421
:100B0000DACEF6CF8C2F8F711111CDCF0E948806CF
:100B1000D2CE112329F08C2F8F710E947F06CBCE6D
:100B20000E947B06C8CE112349F0CF718C2F0E9402
:100B3000880663E08C2F0E94D30ABDCE81E00E941C
:100B4000F10AE1E0EF1508F0B6CE82E00E94F10A6A
:100B5000B2CEF110FFCE8C2F8F71A5CF0F931F93C4
:100B6000CF93DF93EC01688179818A810E946707C6
:100B70008C010E94BF060E945806B801CE010E9457
:100B8000C003DF91CF911F910F910895CF93DF9311
:100B9000EC018B819C81892B29F0888199818923A3
:100BA0008F3F51F4DF91CF910895CE010E94AE05A1
:100BB000CE010E94ED01F6CFCE010E943F028111CD
:100BC000F4CF0E94460A882369F38A81882351F36F
:100BD0008091650282FFE6CF82E00E94F10AE2CFB7
:100BE00090E080E00E942E1890E080E00E9444187F
:100BF0000E946D0A0E948E0A0E94FD100E94E11060
:100C000008950E94350A0E94F00508950E945D0A29
:100C10000E940106089592959F70963091F058F4C5
:100C2000925F9F70923058F4803F19F030F4883E04
:100C300030F481E008959A5FF4CF843FD1F380E0EF
:100C40000895883EB0F3813FD1F7F3CFFC01838153
:100C50009481892B29F08081918189238F3F11F420
:100C600080E00895808191810E945C070E940B06BC
:100C70000895A5E0B0E0EFE3F6E00C94DF212596BF
:100C8000E2E00C94FB21A6E0B0E0E9E4F6E00C948D
:100C9000DF212696E2E00C94FB2108950E944D0688
:100CA00008950E944E0680939A010E94F0050895CF
:100CB00008950E945106089590919A01892B0E94EF
:100CC0005106089590919A0189230E945106089532
:100CD00090919A0189270E94510608950E944D061D
:100CE00008950E946E0608950E94710680939901EE
:100CF0000E94F005089580E00E947406089591E036
:100D000001C0990F8A95EAF7892F0E947406089509
:100D100021E030E001C0220F8A95EAF78091990125
:100D2000822B0E947406089521E030E001C0220F5A
:100D30008A95EAF720958091990182230E94740692
:100D4000089521E030E001C0220F8A95EAF78091F2
:100D5000990182270E947406089590919901892B28
:100D60000E94740608959091990189230E94740647
:100D700008959091990189270E9474060895089515
:100D8000262F277091E001C0990F2A95EAF723E0FA
:100D9000769567952A95E1F7FB01EE0FFF1FE60FA9
:100DA000F71FE40FF51F50E040E0682F70E08191DD
:100DB000DF0111979B01042E02C0369527950A94F6
:100DC000E2F7217021952827292328272C934F5FAC
:100DD0005F4F4330510559F70895A82FA77023E0BE
:100DE000969587952A95E1F7FC01EE0FFF1FE80F16
:100DF000F91FE60FF71F50E040E080E0219130E05E
:100E00000A2E02C0369527950A94E2F721703327FF
:100E1000042E01C0220F0A94EAF7822B4F5F5F4F26
:100E20004330510559F70895262F911109C0853097
:100E300038F4682F70E046E951E0822F0E94C00626
:100E4000089591110AC0853030F466E971E090E0B0
:100E50000E94ED06982F892F089590E0FCCFCF9245
:100E6000DF92FF920F931F93CF93DF936C0100915A
:100E7000990180919A01082BC7E0D0E010E0FC2E88
:100E8000C8010C2E02C0959587950A94E2F780FD63
:100E90000CC02197A0F7F12C8F2DDF91CF911F91DE
:100EA0000F91FF90DF90CF900895B6018C2F0E9494
:100EB0008F0D019771F3F0CFCF93DF93EC010E9478
:100EC0002F07BE010E948F0DDF91CF9108951F93D0
:100ED000CF93DF93EB0190919501992339F0CB01EA
:100EE0000E945C07DF91CF911F910895882369F0DC
:100EF000CB010E942F07182F682FCE010E941407E4
:100F0000BE01812F0E948F0DEDCFCB010E942107E2
:100F1000182FF6CF1F93CF93DF93C0919B0116E05C
:100F200080919C018C1304C0DF91CF911F91089593
:100F3000D0E01C9FF0011D9FF00D1124E356FE4FE1
:100F40004081518162817381848195810E94430631
:100F50002196C770E5CF4091CD015091CE016091AF
:100F6000CF017091D0018091D1019091D2010E9466
:100F7000430608951F93CF93DF938091D201807F22
:100F800009F049C08091CF01882309F444C08091C1
:100F90009B01C0919C016091CD017091CE01A09107
:100FA000D001B091D101D62FD72316E0C81799F1FF
:100FB00090E0109711F0DF3F19F401968770F6CF9B
:100FC000189F9001199F300D1124F901E356FE4F2F
:100FD00041814713F2CF40814613EFCF4281411147
:100FE000ECCF438154814A1B5B0B483C510528F7E9
:100FF0008091D2018F7080618093D201F901EE550A
:10100000FE4F80818F70806180838DEC91E00E9423
:10101000C6050E948A07DF91CF911F910895A1E133
:10102000B0E0E5E1F8E00C94D7218C0185E0F8010F
:10103000DE011D9601900D928A95E1F7F801E2809C
:101040008DECC82E81E0D82E6091D0017091D10135
:101050006115710509F44EC19091CD012091CE0129
:10106000892F82238F3F09F445C140815181A3809C
:10107000B480F090CF01F501E61BF70BFF2009F4D7
:10108000EAC08091D201382F307FE83CF10508F0AA
:10109000A3C031116DC0FE2C251316C0941314C0CB
:1010A000E11012C08F7080618093D2010E94AB0763
:1010B000C6010E94C6058091D201F80185838F2D5B
:1010C0006196EAE00C94F321A114B10429F0842F75
:1010D00085238F3F09F027C180E0F82FF170DF2EC4
:1010E00080FF3CC080919B0120919C0136E08213DF
:1010F00015C04D875E878D859E850E945C07292FD0
:1011000022952F702230F0F0243018F59F70F1F006
:10111000F8019581907FD1F4D12C1EC090E0389FCA
:10112000F001399FF00D1124E356FE4F61816513E4
:1011300006C06081641303C06281E6120FC001968D
:101140008770D5CF9F7011F0882331F3805E88308F
:1011500018F3C8010E94C605FD2CB1CFEE2009F49A
:10116000AECF8091D20181608093D201F12CA7CFC4
:10117000251306C0941304C0F801EE2009F487C0BB
:10118000C8010E942606882319F1EE2009F18091FA
:10119000D201803270F02091CD013091CE0138879C
:1011A0002F831986BB86AA868C87CE0107960E945C
:1011B000C60586E0F801ADECB1E001900D928A958C
:1011C000E1F70E94BA070E94AB07FF24F39477CFA0
:1011D000C8010E94C605F9CF311113C07A2DB98A12
:1011E000A88A6E2D89890E9439068DEC91E00E94B3
:1011F000C60586E0F60111928A95E9F70E94AB07D1
:10120000B5CF25130FC094130DC0E1100BC0F8012A
:101210008583C8010E94C60586E0F60111928A9571
:10122000E9F74DCFC8010E942606882389F2EE20F7
:1012300079F28091D201803208F4BBCF2091CD01A8
:101240003091CE013A8329831B82BD82AC828E838A
:10125000CE010196ACCFE83CF10508F03EC0FE2C73
:10126000EE2009F4B5CF25132AC0941328C080912D
:10127000D20180FD1BC0982F907FC1F0F8018583BB
:10128000903F31F0982F907F905F8F70892B8583EE
:10129000C8010E94C60586E0F801ADECB1E00190FE
:1012A0000D928A95E1F70E94AB0709CF86E0F8011D
:1012B000ADECB1E001900D928A95E1F700CFC80145
:1012C0000E942606811175CF8091D20181608093A2
:1012D000D201C8010E94C605F2CE7A2DB98AA88A29
:1012E0006E2D89890E94390686E0F60111928A9551
:1012F000E9F7D9CFEE2009F46BCFC8010E9426068A
:10130000F82E882309F464CF86E0F801ADECB1E053
:1013100001900D928A95E1F78DEC91E00E940D030A
:101320000E94BA07C0CF81E08E25D7CEACE0B0E0F6
:10133000ECE9F9E00C94DE214F83588769877A87BE
:101340008B879C87CE0107960E940F08882369F03F
:101350008A859B85892B39F04F815885842F852379
:101360008F3F09F06BC016E05FC086E0FE01379644
:10137000DE01119601900D928A95E1F78A859B8591
:10138000892B89F38F81988589238F3F61F3209181
:101390009C0130E0C90101968770992740919B011B
:1013A0004817190671F40E94060610929C011092CB
:1013B0009B0186E0EDECF1E0DF011D928A95E9F7F3
:1013C000D2CF96E0929FD001939FB00D1124A356E7
:1013D000BE4FFE01319601900D929A95E1F78093F0
:1013E0009C010E948A07BFCF819FC00111248356B0
:1013F0009E4F0E940F088823E9F0E0919B011E9FF9
:10140000F0011124E356FE4F4081518162817381C6
:10141000848195810E94430680919B0190E0019612
:101420008770992780939B0180919B0190919C01EB
:101430008913DACF2C96E3E00C94FA2169857A853A
:101440008B859C850E9443068ECF682F809100017A
:10145000909101010E94EE180895682F809100017B
:10146000909101010E94FC180895809100019091D3
:1014700001010E940A1908958091F30185958595CF
:10148000859508958091F301877008959091F301F7
:10149000977081E009F480E0089580911602089524
:1014A00090911602892B8093160208958095909151
:1014B000160298239093160208951092160208952A
:1014C00090911502892B8093150208958095909133
:1014D000150298239093150208951092150208950D
:1014E0008091F401089508950E94730A08959091DF
:1014F000650292FF08C09091F401981721F0809343
:10150000F4010E94740A08958091F401882329F05F
:101510001092F40180E00E94740A0895CF93DF9343
:10152000E0910001F0910101809116028083E09129
:101530000001F0910101808190911502892B808337
:101540009091F401992381F0E0910001F091010163
:101550008081892B808380910001909101010E94FC
:101560005A1881110E94840AC0910001D091010192
:1015700040E250E063ED71E0CE010E941A22892B17
:1015800059F080E2FE01A3EDB1E001900D928A9541
:10159000E1F7CE010E940618DF91CF9108950895DA
:1015A0000E94CF0A08959091650292FF11C098E0C1
:1015B000899F90011124622B6093F3010E94880699
:1015C0008091F3018595859585950E94D00A0895AF
:1015D0000E94880608951092F30180E00E94D00ACC
:1015E00008959091F301809589238093F301282F2A
:1015F000277091F4282F082E000C330B9217130636
:1016000059F09091650292FF07C085958595859563
:101610000E9494060E94EB0A08959091650292FB45
:10162000222720F9281769F080FB92F99093650230
:1016300080916402909165020E945F0B82E00E949B
:10164000F10A08958091650282FB882780F991E074
:1016500089270E940D0B089581E00E940D0B0895CB
:1016600080E00E940D0B08956FEF7FEF90E080E027
:101670000E945C22089590E080E00E943822883E1B
:101680009E4F19F40E941B12089580E0089582E095
:1016900090E00E943022089583E090E00E94302282
:1016A0000895CF9384E090E00E943022C82F82E218
:1016B00090E00E943022982F8C2FCF910895CF93E5
:1016C000C92F682F84E090E00E943E226C2F82E2B6
:1016D00090E00E943E22CF910895AB01BC018FE0C3
:1016E00090E00E9450220895AB01BC0183E190E09C
:1016F0000E945022089560E070E0CB010E94740BBC
:10170000089560E070E0CB010E946D0B0E947B0B9E
:10171000089568EE7EEF90E080E00E945C2260E039
:1017200082E090E00E943E2260E083E090E00E9430
:101730003E2210929A0160E084E090E00E943E22F6
:1017400064E082E290E00E943E2260E085E090E06A
:101750000E943E2260E086E090E00E943E226FEF11
:1017600087E090E00E943E2240E050E0BA0188E02D
:1017700090E00E94502260E08DE090E00E943E22C6
:1017800040E050E0BA0188E190E00E94502260E021
:1017900087E190E00E943E2240E050E0BA018CE1F7
:1017A00090E00E94502270E060E080E290E00E94B1
:1017B0005C2240E050E0BA0188E190E00E945022B3
:1017C00080E00E9434120E9463120E94810B0895EF
:1017D0000E94890B0895682F8EE090E00E943E22BF
:1017E00008950E94D21960931E0270931F02809385
:1017F00020029093210260931A0270931B0280933F
:101800001C0290931D020895089508950E94050CEE
:10181000089508950E94090C089589E79EE00E94AA
:10182000EF170E94040C0E94060C089581E00895B1
:101830000E94160C0895089508950E941B0C0E94A2
:101840001C0C08950E94980E0E94AC0208950E94FC
:10185000BD190E9473120E940D0F0E94220C0E945B
:101860000A0C0895AAE0B0E0E8E3FCE00C94DA2169
:101870000E94190F1091190280E00E94BB0E1813EC
:1018800026C00E94C6198C018091170290911802FF
:1018900008171907A1F08FEF89838A831B820E94A2
:1018A000C6198160782F9D838C8349815A816B8111
:1018B0008D810E94D80210931802009317020E9493
:1018C0001F110E94BF022A96E7E00C94F621809136
:1018D000220281FD0E94C10E0E94180CD82E80E0C9
:1018E0000E94BB0E182F80911902181721F1E12ECA
:1018F000E82600E0FF24F3948E2D8F21B1F0DD2047
:10190000A1F00E831F8291E0812F8F2109F490E0D6
:1019100098870E94C6198160782F9A8789874E819F
:101920005F8168858A850E94D8020F5FFF0C0530B1
:1019300019F7109319020E94F10BC1CFCF93DF93D7
:101940000E94940DEC01811521E5920708F042C038
:10195000811530E5930708F09FC0883E910530F56A
:10196000803E910508F094C0883A910588F4853A44
:10197000910508F086C08130910509F489C000976F
:1019800009F486C0049708F083C0D0E0C0E080C0AE
:101990008F3B9105D0F7C85AD0E0CC0FDD1FC85B54
:1019A000DE4F0990D881C02DD46472C0811540E209
:1019B000940750F4C11581E0D80708F069C0C03F12
:1019C000D10518F3D06564C081159044F0F2DF7042
:1019D000D06A5EC0811535E5930718F5811544E599
:1019E000940708F085C0C11583E5D80708F06CC0DE
:1019F000C11522E5D20708F462C0CE018370992791
:101A000021E030E002C0220F331F8A95E2F7C6952D
:101A1000C69580E2C89FE0011124C22BD32BDC685D
:101A200037C0811539E59307A8F4811548E5940777
:101A300008F063C0C11586E5D80708F0A6CF8C2F43
:101A40000E94360EC82FD0E0DC2FCC27CC27DF71C8
:101A5000D0621EC081152AE5920708F453C0905643
:101A60008115904208F091CF8D2F8F710E94360E14
:101A700090E0982F882788279F719C012C2BE901E3
:101A8000E7CFC55AD0E0CA58DE4FC881D0E0D06455
:101A9000CE01DF91CF9108958370992721E030E046
:101AA00002C0220F331F8A95E2F7C695C69540E221
:101AB000C49FE0011124C22BD32BDD68E9CFDC2FBA
:101AC000CC27C16FD06AE4CFCE018370992721E083
:101AD00030E002C0220F331F8A95E2F7C695C69503
:101AE00040E2C49FE0011124C22BD32BDA68D0CF8F
:101AF000D82FCC27C46FD06ACBCFD82FCC27C06FBC
:101B0000D06AC6CF8F700E94360E34E0D695C79546
:101B10003A95E1F7CF709C2FEC01D069B9CF0E94C4
:101B200057160E949E0C089582389105B9F1B0F4C1
:101B30008133910509F47DC048F48932910509F497
:101B40006DC08A32910509F47BC0089585339105F3
:101B500009F45FC08933910509F10895833E910529
:101B6000D9F138F4803E910529F1823E910579F151
:101B70000895863E9105D9F1873E910509F43EC04E
:101B8000843E910541F52091650221FF24C080919A
:101B9000640284FD19C087EE90E0089520916402EC
:101BA000237009F05AC02091650223FF14C089E216
:101BB00090E008952091640220FD38C030916502C4
:101BC00030FF09C024FF43C090E080E008952091D9
:101BD000640222FDF7CF08952091640222FD3AC0ED
:101BE0003091650230FD39C024FFF5CFEDCF209153
:101BF000640223FFF0CF24FDE7CFCDCF2091640214
:101C000023FD2EC03091650231FFEECF84EE90E0CF
:101C100008952091640225FFDECFC9CF2091640290
:101C200025FD21C02091650223FFD5CF89E390E0F7
:101C3000D2CF2091640226FFCECF8AE290E00895B1
:101C40002091640226FFC7CF81E390E0089583EEE0
:101C500090E0089582EE90E0089580EE90E008957F
:101C600086EE90E0089585E390E0089590916402F7
:101C700092FF06C0282F28712830F9F4877F8460EE
:101C800093FF06C0282F28712831F1F4877E8461E4
:101C90002091650220FF06C0382F38713830D9F402
:101CA000877F816021FF06C0282F28712831D1F459
:101CB000877E816194FD877E0895282F24712430CA
:101CC000F9F68B7F8860DCCF282F2471243101F74F
:101CD0008B7E8861DDCF382F3171313019F78E7FDF
:101CE0008860E0CF282F2171213121F78E7E886115
:101CF000E1CF80E008950E94340B08950E94190FEF
:101D00002FEF86E791E0215080409040E1F700C03E
:101D100000000E94190F80E00E94BB0E80FF04C0EB
:101D20000E947B0E0E94111A08950E947E0E089553
:101D30000E943B0B811102C00E94E80B0E94470BDE
:101D4000809322020E94510B90936502809364025B
:101D50000E94950E0E944C0B0E9459068091990199
:101D60000E947106089508950E94B30E0895089583
:101D70000E94B70E0895E82FF0E0E959FD4F8081E9
:101D800008950895CF93A9E7B1E04EE751E061E0EF
:101D900070E08D918F3F91F0E82FE295EF70F0E0C9
:101DA000C1A18F709B0101C0220F8A95EAF7922F83
:101DB00090959C2391A382A1822B82A34A175B0753
:101DC00041F7CF910895CF93DF93AC01A62FB0E0F8
:101DD00085E0689FF0011124E758FE4F75E081E02F
:101DE00060E091919F3F81F0C92FC295CF70D0E004
:101DF00028A130E09F7002C0359527959A95E2F7AB
:101E0000982F20FD90E0692B880F715051F7A40F97
:101E1000B51F6C93DF91CF9108950E94C20E10926E
:101E200067021092660281E00E943E0F0E9420022B
:101E30000895A1E0B0E0EFE1FFE00C94DE2119820B
:101E400060E0CE0101960E94E30E909166028981C6
:101E500021E0981301C020E098138093660241E0CE
:101E600067E672E086E692E00E943F0F182F0E941C
:101E70002302812F2196E3E00C94FA210895CF925A
:101E8000DF92EF92FF920F931F93CF936C017B0130
:101E9000042F222349F081E0809325020E94C61975
:101EA0009093240280932302C0912502C1110AC09D
:101EB000C0E08C2FCF911F910F91FF90EF90DF909A
:101EC000CF90089580912302909124020E94DE1900
:101ED000059770F310E0A801B601C7010E941A220D
:101EE000892B41F0A801B601C7010E942722109258
:101EF0002502DFCFC0E0FBCF0E940D1C0E94270C03
:101F00000E941A1C08950E941F1C0E94320C0E94FD
:101F1000391C08950E945F190E94F31B0E940D0C4A
:101F20000E947C0F0E94830F0E941D0CFBCF8091AA
:101F30002C0280FF0DC06091070170E0660F771FD3
:101F40006038710570F56115710569F1862F089586
:101F500081FF07C06091070184E0689FB0011124F0
:101F6000EFCF6091070182FD0AC080912B02882388
:101F7000A9F02091060160910701821710F088E016
:101F8000ECCF869FC001112433E0880F991F3A954A
:101F9000E1F7622F70E00E94AE21D2CF68E070E0DE
:101FA000D5CF8FE7089581E0089580912C0280FFBE
:101FB0000CC06091030170E0759567957595679504
:101FC0006115710549F1862F089581FF06C0609162
:101FD000030170E075956795F3CF6091030182FD71
:101FE0000BC090912A029923A1F060910201809187
:101FF0000301961738F0682F70E06038710500F320
:102000008FE70895899FC001112470E00E94AE21DE
:10201000F4CF61E070E0D7CF81E00895803F31F4E4
:102020000E94970F8195809330020895813F19F4A3
:102030000E94970FF8CF823F31F40E94970F81954D
:1020400080932F020895833F19F40E94970FF8CFD1
:10205000893F29F40E94D50F8093310208958A3F69
:1020600021F40E94D50F8195F7CF8B3F31F40E9468
:10207000D50F81958093320208958C3F19F40E9408
:10208000D50FF8CF9CE0980F953070F4845F990BD2
:1020900021E030E001C0220F8A95EAF780912E02FC
:1020A000822B80932E0208958D3F31F480912C0273
:1020B000816080932C0208958E3F21F480912C0240
:1020C0008260F7CF8F3FB9F780912C028460F1CF07
:1020D00040912F02803F59F48091300287FF0DC05C
:1020E0001092300241110BC010922B0208C0813FA8
:1020F00081F48091300218169CF3442381F0809182
:10210000310290913202892B09F05AC010922A02B2
:102110000895823F49F447FFF0CF10922F0280913B
:1021200030028111ECCFE0CF833F19F41416ACF3E9
:10213000E4CF90913102893F29F41916F4F61092F8
:102140003102DBCF8A3F19F497FFD7CFF8CF9091B8
:1021500032028B3F29F497FFD0CF10923202CDCFBD
:102160008C3F19F41916CCF3C8CF9CE0980F95302A
:1021700090F4845F990B21E030E0B90102C0660F52
:10218000771F8A95E2F7CB01809590912E028923E3
:1021900080932E02B2CF8D3F31F480912C028E7F3E
:1021A00080932C02AACF8E3F21F480912C028D7F48
:1021B000F7CF8F3F09F0A1CF80912C028B7FF0CF1A
:1021C00008950E94C6199C0190912F0280913002BF
:1021D000982B21F03093290220932802909131020C
:1021E00080913202982B21F030932702209326020F
:1021F0008DE292E00E942018089586E0EDE2F2E080
:10220000DF011D928A95E9F710922B0210922A02A3
:1022100010922C020895FC01828181110EC08381ED
:1022200081110BC08481811108C091E085818111E9
:1022300001C090E0892F8170089581E0FCCFA6E075
:10224000B0E0E5E2F1E10C94DE2186E0EDE2F2E0BF
:10225000DE01119601900D928A95E1F710922F02FE
:102260001092300210923102109232028B819C81C6
:10227000892B89F080912802909129020E94DE1911
:10228000AC0190912B029923C9F180910801841728
:10229000150608F440C08D819E81892B91F08091B4
:1022A0002602909127020E94DE19AC0190912A0229
:1022B000992309F471C0809104018417150608F46C
:1022C00079C0BE016F5F7F4F8DE292E00E941C19C2
:1022D000811105C08DE292E00E940B1181110E94D4
:1022E000E11086E0FE013196ADE2B2E001900D9280
:1022F0008A95E1F72696E3E00C94FA2120910901F2
:102300008AE0289F900111242417350720F69F5F4B
:1023100090932B0202C09F3FD1F71B81112359F0EC
:102320000E94970F9FEF11160CF491E0899F802D6A
:10233000112480932F021C81112359F00E94970FC2
:102340009FEF11160CF491E0899F802D112480934A
:10235000300230912F02332309F49DCF20913002B7
:10236000222309F498CF45EB3403C00111249923AB
:1023700059F090932F0245EB24039001112433234D
:1023800039F03093300287CF81E080932F02F3CF72
:1023900081E0809330027FCF209105018AE0289F61
:1023A000900111242417350708F08BCF9F5F90937D
:1023B0002A0202C09F3FD1F71D81112359F00E94CC
:1023C000D50F9FEF11160CF491E0899F802D1124F9
:1023D000809331021E81112359F00E94D50F9FEF87
:1023E00011160CF491E0899F802D11248093320204
:1023F00030913102332309F464CF20913202222339
:1024000009F45FCF45EB3403C0011124992359F03F
:102410009093310245EB240390011124332339F0CA
:10242000309332024ECF81E080933102F3CF81E0CE
:102430008093320246CF83E290E00E9430228332C2
:1024400089F484E290E00E943022883059F485E2D9
:1024500090E00E94302291E0823209F090E0892FD2
:102460008170089580E0FCCFCF93C82F6FEF81116A
:1024700063E283E290E00E943E226FEFC11168E0C8
:1024800084E290E00E943E226FEFC11162E285E299
:1024900090E00E943E22CF910895089586E290E058
:1024A0000E943022682F70E090E080E00895089547
:1024B000CF93C62F0E9457126C2F86E290E00E94A5
:1024C0003E22CF91089580E00E94341260E070E0D7
:1024D000CB010E9458120E94DE150E94B41681E0C2
:1024E0000E94341208950E944D120E944E120E94C2
:1024F00057120E941B12811102C00E94631208959C
:10250000CF93FB01C281CC2309F19C0122513F45AD
:102510002031310520F582510E94C416C0E08C2F75
:10252000CF91089581E00E94880643E062E081E057
:102530000E941602F3CF81E00E94940643E062E01D
:1025400081E00E941602EBCF82E0F6CF8031FFE5FA
:102550009F0789F381319F45B9F3C1E0E0CF803116
:10256000EFE59E07F9F281319F45C9F682E0DBCFA6
:102570002FEFFC01208308951F93CF93DF93EC018D
:10258000162FE881E150E33108F051C0F0E0E05847
:10259000FD4D0C94C22119828AE08A830FC0898183
:1025A0008230A1F08330A9F08130B9F40E94D219B1
:1025B0000E94C8216A837B838C839D83612FCE0117
:1025C0000E94C61ADF91CF911F9108950E944E126A
:1025D000EFCF80E00E94BB0EE0CF612FCE010E94C2
:1025E000B812ECCF89818230C1F76A817B818C81FE
:1025F0009D810E94C8210E945812E0CF4B816A81C0
:1026000089810E9493159827892798279D838C8319
:10261000D5CF2C813D813227232732274B816A81F8
:1026200089810E94BD15CACF0E94DE15C7CF8FEFEA
:102630008883C4CF0E9465168983C0CF0E94671625
:102640009827892798279A838983B8CF6B8170E070
:1026500089819A81AE014C5F5F4F9827892798271F
:102660000E946A16ABCF6B8170E089819A81AE01BE
:102670004C5F5F4F9827892798270E948F169ECF1F
:102680000E94B4169BCF0E949115D6CF6B8170E04B
:1026900089819A81AE014C5F5F4F982789279827DF
:1026A0000E9411168BCF6B8170E089819A81AE01F7
:1026B0004C5F5F4F9827892798270E9434167ECF5A
:1026C000CF93DF93EC01FB018281882309F464C17D
:1026D000C330FDE5DF07E0F5CA3F9CE5D90730F4DC
:1026E0009E0122503C4524313105D8F50E94510B02
:1026F0009093650280936402C231ECE5DE0709F431
:102700001FC108F06EC0C9308CE5D80709F4F2C0CB
:1027100008F03FC0C530ECE5DE0709F4DBC058F532
:10272000C3308CE5D80709F4CDC008F0CFC0809144
:1027300064028160C230DC4509F4AEC0809164025D
:10274000909165020E945F0B0E94060680E009C01E
:10275000C53AEDE5DE0751F238F4C1369DE5D907FB
:1027600029F2DF91CF9108959E012D5A3D452330E6
:102770003105B8F7BBCF809164028062C730FCE5B9
:10278000DF0709F489C008F4B1C080916402806455
:1027900083C0CD309CE5D90709F4BAC070F48091AC
:1027A00064028E7FCB30FCE5DF0709F475C008F4C6
:1027B000A7C0809164028D7F6FC0CF309CE5D907A0
:1027C00009F4B6C008F4A8C0C031FCE5DF0709F47D
:1027D000B3C0C131DC4509F0B1CF809164028F7B79
:1027E0005BC0CF3F9CE5D90709F4B4C098F5CA3F58
:1027F000FCE5DF0709F472C0B8F4C4319CE5D907E1
:1028000009F4B6C008F4A2C0C531DC4509F096CF82
:102810008091640282FB992790F921E0922790FB36
:1028200082F990FB83F938C0CC3F8CE5D80709F4D6
:1028300077C008F457C0CD3FECE5DE0709F474C05B
:10284000809165028360CE3FDC4509F077CF8093AD
:10285000650274CFC1368DE5D80709F496C068F4D7
:10286000C130EDE5DE0709F48CC008F477C0C23052
:10287000DD4509F063CF80E085C0CD3A9DE5D907FD
:10288000E9F068F490916402892F8E7F90FF816057
:10289000C53ADD4509F052CF809364024FCFCE3A5E
:1028A0008DE5D80789F1CF3ADD4509F047CF909102
:1028B0006502892F877F93FF8860C9CF8091650269
:1028C0008860C5CF809164028260E6CF8091640207
:1028D0008460E2CF809164028860DECF80916502DF
:1028E0008160B5CF809165028260B1CF8091640232
:1028F0008061D2CF0E940606809164028068CCCFAE
:10290000809164028C60C8CF80916502877F9FCFE1
:10291000809164028B7FC0CF80916402877FBCCF9F
:10292000809165028E7F93CF809165028D7F8FCFDE
:10293000809164028F7EB0CF809164028F7DACCF96
:102940000E940606809164028F77A6CF8091640270
:10295000837FA2CF809165028C7F79CF80916502C1
:10296000982F909591708E7F892B90FB81F96FCF76
:102970000E94060690916402892F97FB87F9805880
:102980008BCF81E00E94EB0BD9CE90916402892F0E
:102990008F7E94FF806180CF81E0E3CEB0E0A0E045
:1029A000E4EDF4E10C94DA21E82FF0E0EA54FF4F73
:1029B000D490282F26952695269530E0F901EA5ADD
:1029C000FE4F0491877010E0082E02C01595079500
:1029D0000A94E2F701701127F901EA5BFE4FE490D7
:1029E000F12C082E02C0F594E7940A94E2F791E0E6
:1029F000E922FF24F901EA5CFE4FC491D0E002C055
:102A0000D595C7958A95E2F7C170DD2701151105A7
:102A100019F081EE0E941303E114F10419F086EE1F
:102A20000E9413038D2D0E94A903E114F10419F0F3
:102A300086EE0E945F030115110519F081EE0E94D8
:102A40005F03CD2B19F08CE20E94A903CDB7DEB74E
:102A5000E7E00C94F621EF92FF920F931F93CF9330
:102A6000DF93EC01162F0AE08881882309F454C013
:102A7000813009F04EC08981813099F47E0122E0D5
:102A8000E20EF11C8A810E94A903E7012196812FA1
:102A9000815050F3EFE9FFE03197F1F700C00000FB
:102AA000F7CF823041F47E0182E0E80EF11C8A818A
:102AB0000E941303EACF833041F47E01E2E0EE0E80
:102AC000F11C8A810E945F03E0CF843011F02196CF
:102AD000DDCF2A81229690E080E0AE014F5F5F4F0C
:102AE0002053330B2A30310548F0019778F2EFE993
:102AF000FFE03197F1F700C00000F7CF089FB00169
:102B0000099F700D1124C901860F971F2981EA01C1
:102B1000E4CF0E94CE14BACFCDB7DEB7E6E00C9476
:102B2000F72184E008950F931F93CF93DF938430B0
:102B300008F561111FC04530E8F4042F10E0000FC4
:102B4000111F2AE0829F000D111D1124C8018796D4
:102B50000E943022C82FD0E0DC2FCC27C8018896F5
:102B60000E9430229E01282BC901DF91CF911F9135
:102B70000F91089590E080E0F8CF1F93CF93DF93FB
:102B8000122F8430B8F4611115C0453098F4C42F69
:102B9000D0E0CC0FDD1F9AE0899FC00DD11D11241C
:102BA000632FCE0187960E943E22612FCE01889628
:102BB0000E943E22DF91CF911F910895EF92FF92E4
:102BC0000F931F93CF93DF939CEAE92E90E0F92EA9
:102BD00010E000E0D0E0C0E00E94A80121E030E079
:102BE0008017110641F03CF0FE01EE0FFF1FEE0DC5
:102BF000FF1D259134914C2F60E0802F0E94BD1560
:102C00002196C530D10541F70F5F1F4F8AE0E80ECE
:102C1000F11C04301105F1F6CDB7DEB7E6E00C94F7
:102C2000F721EF92FF920F931F93CF93DF93EC0165
:102C30008A017C01E60EF71ECE018796CE15DF05D0
:102C400029F4CDB7DEB7E6E00C94F721C832D10500
:102C500040F40E943022F80180830F5F1F4F2196BD
:102C6000EBCFF8011082F9CFB0E0A0E0EAE3F6E1A3
:102C70000C94D9217C016A018C01060F171FEC010D
:102C8000CE018796C017D10729F4CDB7DEB7E8E0AB
:102C90000C94F521C832D10540F4FE01EE19FF096C
:102CA000EC0DFD1D60810E943E222196E9CF462F4A
:102CB000843040F4711106C0653020F460E00E9459
:102CC0009315089590E080E0089580E1089581EBE8
:102CD00093E00895EF92FF920F931F93CF93DF93AA
:102CE000EC018A017C01E60EF71ECE01815B9F4F4D
:102CF000CE15DF0529F4CDB7DEB7E6E00C94F72159
:102D0000C13B23E0D20740F40E943022F8018083C7
:102D10000F5F1F4F2196E9CFF8011082F9CFB0E085
:102D2000A0E0E5E9F6E10C94D9217C016A018C016F
:102D3000060F171FEC01CE01815B9F4FC017D10713
:102D400029F4CDB7DEB7E8E00C94F521C13B23E0D0
:102D5000D20740F4FE01EE19FF09EC0DFD1D608164
:102D60000E943E222196E7CFCF93DF93CFE4D0E0BD
:102D700060E0CE010E943E222196C11584E0D80772
:102D8000B9F7DF91CF910895A4E0B0E0EAECF6E165
:102D90000C94DA21F82E8FE08F1548F18FEF93E035
:102DA0000E943022811123C00FE410E0F11023C0F3
:102DB00019821A821B821C82DD24D39478018FEF42
:102DC000E81AF80AC8010E94302289831A828823EF
:102DD00071F09FEF980F9330D8F48A83D9820E5FF9
:102DE0001F4FC7010E9430228B83811112C024968D
:102DF000E7E00C94F621011584E01807C1F3C8013F
:102E00000E943022811101C0FA940F5F1F4FCECF74
:102E1000870160E0CE0101960E942B15CFCFCF93A2
:102E2000DF93EB0186319C4511F50E944D0A9A8192
:102E3000992399F08A7A91E009F490E09093330213
:102E4000811109C089E20E94250A0E948E0A80E051
:102E5000DF91CF91089585E3F6CF80913302811100
:102E600004C089E20E942D0AF0CF85E3FBCF81E008
:102E7000EFCF0F931F93CF93DF93C42FD22FFC017B
:102E800082818823C9F0409336020E94C61990932C
:102E900035028093340280E28C0F883040F4C77092
:102EA00081E001C0880FCA95EAF70E94B203DF9162
:102EB000CF911F910F91089510913602141332C0D3
:102EC00080913402909135020E94DE19883C910570
:102ED00048F5C0E2CD0F1D17B9F080E2810F8830B0
:102EE00040F4177081E001C0880F1A95EAF70E943C
:102EF000B903C83048F481E09D2F977001C0880F56
:102F00009A95EAF70E94B203802F0E94A903C83065
:102F100070F6D77081E001C0880FDA95EAF70E9459
:102F2000B903C5CF80E28C0F883008F6C77081E006
:102F300001C0880FCA95EAF7F2CF0F939C01CB012D
:102F4000233F4CE5340759F1A8F4283DFCE53F0741
:102F500001F1293D4CE53407D1F1273D3C4591F481
:102F600006E221EE41EE67ED7CE50E94391780E034
:102F70000F910895253FFCE53F07E9F0B0F0263FAB
:102F80003C45F9F0FC018281882339F11092360228
:102F9000EFCF07E225EE45EE68ED7CE5E6CF06E2F1
:102FA00021EE40EE63EF7CE5E0CF07E225EE44EE54
:102FB00064EF7CE5DACF06E221EE42EE65EF7CE5D8
:102FC000D4CF07E225EE46EE66EF7CE5CECF08E2F1
:102FD00021E045EE69ED7CE5C8CF81E0C9CF909353
:102FE0008F0180938E01089590933C0280933B0261
:102FF0000895E0913B02F0913C02309729F0019056
:10300000F081E02D0995089580E00895E0913B025C
:10301000F0913C02309799F020911601222359F04B
:103020002091640227FF07C0DC012C9111962C939C
:10303000119726E02C930280F381E02D09950895E5
:10304000E0913B02F0913C02309739F022E0DC0144
:103050002C930480F581E02D099508952091390283
:1030600030913A022817390771F090933A02809311
:103070003902E0913B02F0913C02309721F006804A
:10308000F781E02D0995089520913702309138029B
:103090002817390771F09093380280933702E09136
:1030A0003B02F0913C02309721F00084F185E02D45
:1030B00009950895FC01329680911601882321F02C
:1030C000809164029EE187FF96E080E0915008F4D1
:1030D000089521912223D1F38F5FF8CF662301F168
:1030E000209116012223F1F02091640227FF1AC0DB
:1030F000462F4695469546954E3190F4677021E0EF
:1031000030E002C0220F331F6A95E2F7840F911D51
:10311000FC01828190E02823392381E0232B69F48C
:1031200080E00895FC01329608962191261721F03F
:10313000E817F907D1F7F4CF81E008959C01FC016D
:1031400032969FEF80E04191461751F09F3F19F46E
:10315000411101C0982F8F5F8630A9F79F3F09F476
:103160000895290F311D97FD3A95F901628308955D
:10317000FC01329608962191261303C0DF011197B6
:103180001C92E817F907B9F70895E62FE695E6953A
:10319000E695EE3168F4E80FF92FF11D677021E034
:1031A00030E001C0220F6A95EAF78281822B828388
:1031B0000895E62FE695E695E695EE3170F4E80F72
:1031C000F92FF11D677021E030E001C0220F6A95F0
:1031D000EAF7209582812823228308952091160101
:1031E000222339F02091640227FF03C00E94C518F2
:1031F00008950E949E18089520911601222339F007
:103200002091640227FF03C00E94D91808950E94EC
:10321000B8180895FC01329680911601882351F068
:103220008091640287FF06C08EE1DF011D928A95BE
:10323000E9F7089586E0F9CF46E050E00E941A22AF
:1032400021E0892B09F420E0822F089508950E943F
:1032500026190895811106C081E080933D020E94E5
:103260002719089582E0F9CF83E080933D020E9400
:10327000271908950E942A19089581E080933D023C
:103280000E94271908950E943D19089508950895F0
:103290000E9447190895089508950E9446190895B7
:1032A0000E944B190E94190F0E944C1980E00E9445
:1032B000BB0E91E0811101C090E0892F089585B780
:1032C000806885BF85B7806885BF08951F921FB647
:1032D0001F9211248F939F93AF93BF9380913E02CF
:1032E000811113C08091680290916902A0916A02D5
:1032F000B0916B024196A11DB11D8093680290931D
:103300006902A0936A02B0936B02BF91AF919F9143
:103310008F911F901FBE1F9018958091700284306E
:1033200031F10E94990210923E0288E190E020E47F
:103330000FB6F894A895809360000FBE20936000AC
:1033400083B7817F846083BF83B7816083BF7894B4
:10335000889583B78E7F83BF0FB6F894A895809128
:103360006000886180936000109260000FBE089535
:103370000E9406060E949E02089582E084BD93E0AA
:1033800095BD9AEF97BD80936E0008952FB7F8947E
:103390008091680290916902A0916A02B0916B02DB
:1033A0002FBF08952FB7F894609168027091690259
:1033B00080916A0290916B022FBF08959C014FB7D4
:1033C000F8948091680290916902A0916A02B0918C
:1033D0006B024FBF821B930B089578941F921FB608
:1033E0001F9211248F939F93AF93BF938091680294
:1033F00090916902A0916A02B0916B020196A11DA1
:10340000B11D8093680290936902A0936A02B09301
:103410006B02BF91AF919F918F911F901FBE1F9024
:10342000189587E797E7909301088093000888E153
:103430009AE00FB6F894A895809360000FBE909321
:103440006000FFCF88E19AE00FB6F894A8958093CA
:1034500060000FBE90936000FFCF809162020895DC
:1034600008959C0184E08093E9009FEF8091E8003B
:10347000915085FD06C085ED8A95F1F70000911108
:10348000F5CF8091E80085FF0CC050E040E066E099
:1034900070E0C9010E94D81C8091E8008E7780936B
:1034A000E8000895CF93DF93EC0180911601882303
:1034B000B1F18091640287FF32C060E284E08093C2
:1034C000E9008FEF9091E800815095FD06C095EDE1
:1034D0009A95F1F700008111F5CF8091E80085FF02
:1034E0001BC08091160170E050E040E0811104C0E3
:1034F00050E040E068E070E0CE010E94D81C80916E
:10350000E8008E778093E80080E2FE01A2E4B2E05A
:1035100001900D928A95E1F7DF91CF91089568E0CF
:1035200081E0CDCF80933F027093410260934002CF
:10353000809170028430F9F48093E9008FEF9091CC
:10354000E800815095FD06C095ED9A95F1F70000D1
:103550008111F5CF8091E80085FF0DC050E040E07B
:1035600063E070E08FE392E00E94D81C8091E80055
:103570008E778093E8000895BC0184E00E94921A3F
:103580000895BC0183E00E94921A0895CF93FC0134
:10359000603221F580917002843001F5C091E9001C
:1035A000CF702091EC00922F917020FD90E8C92BF4
:1035B00082E08093E9008091E80080FF0CC050E039
:1035C00040E060E270E0CF010E94D81C8091E800EA
:1035D0008E778093E800CF70C093E900CF91089573
:1035E00080916F02811109C00E94B71E0E94141FB2
:1035F0008091E20084608093E200089510926F024F
:1036000008950E943D19089560916C0281E0611156
:1036100001C080E00E94341908959091700281E009
:10362000943009F080E060916C020E943A1908958C
:1036300042E061EC81E00E94331E42E261EC84E0F2
:103640000E94331E42E261EC82E00E94331E42E29D
:1036500060EC83E00E94331E9091700281E0943010
:1036600009F080E060916C020E942A19089580910F
:103670007202833009F463C030F48130E1F18230AA
:1036800009F4A0C008958A3009F48CC08B3009F485
:1036900071C0893009F052C080917102813209F005
:1036A0004DC08091750290917602009719F00297B3
:1036B00009F044C08091E800877F8093E800809102
:1036C000E80082FF37C09091F3008091F2000297EA
:1036D00031F48091F100813011F0863021F4809135
:1036E000F100809362028091E8008B778093E8007C
:1036F0000E94671E23C080917102813AF9F4809183
:10370000E800877F8093E8008091750290917602AF
:10371000892B61F460E282E492E070E00E94761D01
:103720008091E8008B778093E800089560E090E056
:1037300080E0F3CF809170028111C1CF0895809114
:103740007102813AD9F78091750290917602892BA6
:10375000A9F78091E800877F8093E8008091E800D6
:1037600080FFFCCF809116018093F1008091E800EA
:103770008E77BCCF80917102813201F78091750202
:1037800090917602892BD1F68091E800877F809313
:10379000E8000E94671E80917302809316010E94C8
:1037A0000606089580917102813241F68091E80009
:1037B000877F8093E8000E94671E80917402809347
:1037C0006302089580917102813A09F0B7CF809128
:1037D000E800877F8093E8008091E80080FFFCCFBD
:1037E00080916302C1CF84B7877F84BF0FB6F894FE
:1037F000A8958091600088618093600010926000BD
:103800000FBE80E890E00FB6F8948093610090932B
:1038100061000FBE0E94431908950E94B71E0E94C6
:10382000141FE2EEF0E080818460808378940E942F
:10383000932108958AE091E00E94F4170895809101
:103840007002853031F480917002853019F00E9449
:10385000B81908950E948D1980916E02882399F3FA
:103860000E945019882379F30E94C21C0E94060608
:10387000EACFA0E2B0E0EFE3FCE10C94DF2180911D
:103880007002843009F583E08093E9008091E800BC
:1038900082FF1AC08091E80090E085FF09C050E0E7
:1038A00040E060E270E0CE0101960E94271D91E0A9
:1038B0008091E8008B778093E800992329F060E2FB
:1038C000CE0101960E94BC12A096E2E00C94FB216E
:1038D0000E946B1C0895292F33272330310521F1D5
:1038E00068F42130310509F443C02230310509F470
:1038F00044C090E080E030E020E026C02132310575
:1039000051F122323105A9F76330710590F7FB01BF
:10391000EE0FFF1FEF57FE4F2081318162587E4F1F
:10392000FB01808190E010C099278130910581F0E2
:10393000009729F00297E9F6E6E6F1E002C0E8E830
:10394000F1E0849190E09F01FA0131832083089592
:10395000ECE7F1E0F6CF6330710558F6660F771F9C
:10396000FB01E957FE4F2081318189E090E0ECCFE7
:1039700082E190E027EE31E0E7CF8BE590E02CE8A4
:1039800031E0E2CF80E189BD82E189BD09B400FE6A
:10399000FDCF8091D8008F7D8093D8008091E0008A
:1039A00082608093E0008091E00081FDFCCF08956B
:1039B000AF92BF92CF92DF92FF920F931F93CF935C
:1039C000DF936C01EB018A010E94861EF82E8111A3
:1039D00023C00115110539F0F80180819181C81BC0
:1039E000D90BC80ED91EB12CA12C2097A9F080911B
:1039F000E80085FD22C08091E8008E778093E80082
:103A000001151105A1F0F80180819181A80EB91E60
:103A1000B182A08285E0F82E8F2DDF91CF911F918A
:103A20000F91FF90DF90CF90BF90AF9008950E94CC
:103A3000861E8823D1F2F82EEFCFF60181916F0117
:103A40008093F1002197FFEFAF1ABF0ACECFAF925C
:103A5000BF92CF92DF92FF920F931F93CF93DF938A
:103A60006C01EB018A010E94861EF82E811123C091
:103A70000115110539F0F80180819181C81BD90B1E
:103A8000C80ED91EB12CA12C2097A9F08091E80076
:103A900085FD22C08091E8008B778093E8000115B6
:103AA0001105A1F0F80180819181A80EB91EB182A3
:103AB000A08285E0F82E8F2DDF91CF911F910F917D
:103AC000FF90DF90CF90BF90AF9008950E94861E28
:103AD0008823D1F2F82EEFCF8091F100F601819387
:103AE0006F012197FFEFAF1ABF0ACECFFC01809183
:103AF00077029091780286179707A0F061157105FB
:103B000029F49091E8009E779093E80090E0611589
:103B1000710551F4911108C08091E80082FF34C012
:103B200080E00895BC01F2CF809170028823C1F13A
:103B30008530C1F18091E80083FD30C08091E800BC
:103B400082FDEACF8091E80080FFE1CF8091F30011
:103B50002091F200382F6115710519F028303105D8
:103B600058F091E02830310509F090E02091E8000C
:103B70002E772093E800CBCF81918093F1006150A4
:103B800071092F5F3F4FE7CF80917002882341F08A
:103B9000853041F08091E80083FFBECF81E0089539
:103BA00082E0089583E00895FC018091770290916E
:103BB000780286179707A0F06115710529F48091A6
:103BC000E8008E778093E80090E06115710551F46C
:103BD000911108C08091E80082FF35C080E008950F
:103BE000BC01F2CF809170028823C9F18530C9F100
:103BF0008091E80083FD31C08091E80082FDEACF2A
:103C00008091E80080FFE1CF8091F3002091F200E5
:103C1000382F6115710519F02830310558F091E001
:103C20002830310509F090E08091E8008E7780938C
:103C3000E800CBCF84918093F100319661507109F7
:103C40002F5F3F4FE6CF80917002882341F085308F
:103C500041F08091E80083FFBDCF81E0089582E0CC
:103C6000089583E00895982F973028F08F708093FF
:103C7000E90081E008959093E900242F762F50E029
:103C8000981731F07091EC002091ED005091F00008
:103C900021FD02C09F5FE8CF3091EB003E7F309363
:103CA000EB003091ED003D7F3093ED003091EB0063
:103CB00031603093EB007093EC002093ED00509353
:103CC000F0002091EE0027FDE5CF80E0089580917F
:103CD000710287FF13C08091E80082FF06C08091C7
:103CE000E8008B778093E80004C080917002811116
:103CF000F2CF0895809170028823D9F38091E80073
:103D000080FFF8CF8091E8008E77ECCF2091E4001F
:103D10003091E50095E6A9012091EC00822F817099
:103D200020FF06C08091E80080FF06C080E0089573
:103D30002091E80022FD1AC080917002882389F04A
:103D4000853089F08091EB0085FD0FC02091E40063
:103D50003091E50042175307F9F29150E1F684E003
:103D6000089582E0089583E0089581E008950E9417
:103D7000261F0E942E1FE0EEF0E08081816080838C
:103D8000E8EDF0E080818F77808319BCA7EDB0E08B
:103D90008C918E7F8C9380818F7E808310926F02B6
:103DA00008950F931F93CF93DF930E94261F0E94C5
:103DB0002E1FC8EDD0E088818F7788838881806846
:103DC000888388818F7D888319BC1092700210923D
:103DD0006C0210926E0210926D0200EE10E0F8017B
:103DE00080818B7F808388818160888342E060E06E
:103DF00080E00E94331EE1EEF0E080818E7F8083C0
:103E0000E2EEF0E080818160808380818860808341
:103E1000F80180818E7F8083888180618883DF9133
:103E2000CF911F910F910895E8EDF0E080818F7E92
:103E30008083E7EDF0E080818160808384E082BF51
:103E400081E080936F020E94D11E0895E8EDF0E0BA
:103E500080818E7F80831092E20008951092DA00B4
:103E60001092E10008951F920F920FB60F92112445
:103E70002F933F934F935F936F937F938F939F9372
:103E8000AF93BF93EF93FF938091E10082FF0BC04C
:103E90008091E20082FF07C08091E1008B7F8093D8
:103EA000E1000E9492218091DA0080FF19C0809188
:103EB000D80080FF15C08091DA008E7F8093DA00F1
:103EC0008091D90080FF96C080E189BD82E189BDE3
:103ED00009B400FEFDCF81E0809370020E94F01AC9
:103EE0008091E10080FF19C08091E20080FF15C041
:103EF0008091E2008E7F8093E2008091E2008061F9
:103F00008093E2008091D80080628093D80019BC31
:103F100085E0809370020E94041B8091E10084FF81
:103F20002BC08091E20084FF27C080E189BD82E13F
:103F300089BD89B5982F917080FFFBCF8091D80003
:103F40008F7D8093D8008091E1008F7E8093E10087
:103F50008091E2008F7E8093E2008091E200816098
:103F60008093E20080916C02882309F449C084E0C8
:103F7000809370020E940D1B8091E10083FF29C095
:103F80008091E20083FF25C08091E100877F8093CC
:103F9000E10082E08093700210926C028091E10057
:103FA0008E7F8093E1008091E2008E7F8093E2001B
:103FB0008091E20080618093E20042E060E080E076
:103FC0000E94331E8091F00088608093F0000E9470
:103FD000011BFF91EF91BF91AF919F918F917F91C5
:103FE0006F915F914F913F912F910F900FBE0F9066
:103FF0001F90189519BC109270020E94FE1A70CF83
:104000008091E30087FD93E090937002B3CF1F92FD
:104010000F920FB60F9211242F933F934F935F93FC
:104020006F937F938F939F93AF93BF93CF93DF93C0
:10403000EF93FF93D091E900DF708091EC00C82FDF
:10404000C17080FDC0E81092E9008091F000877F88
:104050008093F00078940E944B201092E9008091A8
:10406000F00088608093F000CD2BCF70C093E90002
:10407000FF91EF91DF91CF91BF91AF919F918F9180
:104080007F916F915F914F913F912F910F900FBE54
:104090000F901F901895AAE2B0E0E1E5F0E20C94D1
:1040A000DE2181E792E02091F100FC012193CF0114
:1040B000F2E089379F07B9F70E94371B8091E8002B
:1040C00083FF1EC180917102909172029A3008F0B4
:1040D00017C1E92FF0E0ED56FD4D0C94C221803858
:1040E00099F0823809F00CC1809175028F70873089
:1040F00008F006C18093E9008091EB0085FB8827DA
:1041000080F91092E90006C080916D0290916E02D4
:10411000911182609091E800977F9093E8008093DE
:10412000F1001092F1008091E8008E77E5C08823BD
:1041300009F4D3C0823009F0E3C080917302811189
:10414000D6C0809175028F702FEF280F263008F0AF
:10415000D7C08093E9002091EB0020FFC8C09330C6
:1041600031F48091EB0080628093EB00C0C09091AD
:10417000EB0090619093EB0021E030E001C0220F52
:104180008A95EAF72093EA001092EA008091EB000A
:104190008860EACF8111B4C0109173021F778091BB
:1041A000E3008078812B8093E3008091E800877F93
:1041B0008093E8000E94671E8091E80080FFFCCF9A
:1041C0008091E30080688093E30082E0111183E036
:1041D0008093700295C08058823008F091C0809121
:1041E0007302909174028C3D23E09207A1F583E065
:1041F0008A838AE289834FB7F894DE01139620E020
:104200003EE051E2E32FF0E050935700E49120FFAD
:1042100003C0E295EF703F5FEF708E2F90E0EA30C1
:10422000C0F0C7968D939D932F5F243159F74FBFF0
:104230008091E800877F8093E8006AE270E0CE0119
:1042400001960E94761D8091E8008B778093E800AC
:1042500057C0C096E7CF6091750270917602AE01AB
:104260004F5F5F4F0E94681CBC01892B09F448C056
:104270009091E800977F9093E80089819A810E944D
:10428000D41DE1CF8038E1F58091E800877F8093ED
:10429000E80080916C028093F10045CF811130C01D
:1042A00090917302923060F58091E800877F80934F
:1042B000E80090936C020E94671E80916C02882334
:1042C00011F084E005C08091E30087FDFACF81E022
:1042D000809370020E94181B13C08091730281307A
:1042E00079F481E0933009F080E080936E021092BF
:1042F000E9008091E800877F8093E8000E94671EB4
:104300008091E80083FF0AC08091E800877F809356
:10431000E8008091EB0080628093EB00AA96E3E0D6
:104320000C94FA210895CF93809170028823A1F014
:10433000C091E900CF709091EC00892F817090FDC1
:1043400080E8C82B1092E9008091E80083FD0E946C
:104350004B20CF70C093E900CF91089597FB072EB3
:1043600016F4009407D077FD09D00E94062207FCBE
:1043700005D03EF4909581959F4F08957095619575
:104380007F4F0895EE0FFF1F0590F491E02D0994E3
:1043900069279627692778278727782708952F92F6
:1043A0003F924F925F926F927F928F929F92AF92C5
:1043B000BF92CF92DF92EF92FF920F931F93CF9312
:1043C000DF93CDB7DEB7CA1BDB0B0FB6F894DEBFA9
:1043D0000FBECDBF09942A88398848885F846E84CF
:1043E0007D848C849B84AA84B984C884DF80EE8019
:1043F000FD800C811B81AA81B981CE0FD11D0FB622
:10440000F894DEBF0FBECDBFED010895AA1BBB1B04
:1044100051E107C0AA1FBB1FA617B70710F0A61BC4
:10442000B70B881F991F5A95A9F780959095BC01E5
:10443000CD010895FB01DC0104C08D91019080192C
:1044400021F441505040C8F7881B990B0895FB0197
:10445000DC0102C001900D9241505040D8F7089500
:10446000F999FECF92BD81BDF89A992780B508953C
:10447000A8E1B0E042E050E00C946422262FF999C4
:10448000FECF92BD81BDF89A019700B4021639F0B3
:104490001FBA20BD0FB6F894FA9AF99A0FBE089584
:1044A0000396272F0E943F220E943E22252F0E9422
:1044B0003F22242F0C943F220196272F0E943F2257
:1044C0000C943E22DC01CB01FC01F999FECF06C021
:1044D000F2BDE1BDF89A319600B40D9241505040C2
:1044E000B8F70895F894FFCFFB03FB032C042C04CA
:1044F000B904D5045B045B04E00447055605560582
:10450000CB12CF12F212FE12091314131713171342
:104510001713171317131A131E13261333134013ED
:104520004313461353136F20972080219720802137
:0A453000CA20EB20802142214E2119
:10453A00F501280850011E0A14012D1A521A311ABF
:10454A00C11ABC1A301A01E200E900EA00B500B645
:10455A0000B700CD008301CC008A019201940121A9
:10456A0002230224022502260227022A02B300B4E9
:10457A00006F007000818283E200E900EA00B50062
:10458A00B600B700CD008301CC008A0192019401E4
:10459A002102230224022502260227022A02B3004C
:1045AA00B4006F0070008182839397C6353440222D
:0E45BA00B6D102F9011B029E01B701D7010024
:00000001FF
